:020000040800F2
:1040000030470020B5410008F55800081156000857
:10401000F1580008BD500008696F0008000000005A
:104020000000000000000000000000001D4100082A
:104030002D5100080000000061410008F96B0008E4
:10404000CF410008CF410008CF410008CF41000810
:10405000CF410008CF410008CF410008CF41000800
:10406000CF410008CF410008CF410008CF410008F0
:10407000CF410008CF410008CF410008CF410008E0
:10408000CF410008CF410008CF410008CF410008D0
:10409000CF410008CF410008CF410008CF410008C0
:1040A000CF410008CF410008CF410008CF410008B0
:1040B000CF410008CF410008CF410008CF410008A0
:1040C000CF410008CF410008CF410008CF41000890
:1040D000CF410008016D0008916D0008CF41000834
:1040E000CF410008CF410008CF4100080000000088
:1040F00000000000000000000000000000000000C0
:10410000CF410008DFF810D000F018FC004800474D
:10411000A1810008AFF3008030470020224B1968CE
:104120000868B0E8F00F80F30988BFF36F8F4FF095
:10413000000080F311884EF00D0E70470000000063
:1041400006480068006880F3088862B661B6BFF36D
:104150004F8FBFF36F8F00DF00BF00BF08ED00E09F
:10416000EFF30980BFF36F8F0F4B1A6820E9F00F50
:10417000106008B54FF0BF0080F31188BFF34F8F78
:10418000BFF36F8F05F048F94FF0000080F31188FE
:10419000BDE8084019680868B0E8F00F80F30988A6
:1041A000BFF36F8F704700BF24000020EFF305803E
:1041B000704700000648804706480047FEE7FEE7D4
:1041C000FEE7FEE7FEE7FEE7FEE7FEE7FEE7FEE7C7
:1041D0002D6C00080541000840EA01039B0703D04D
:1041E00009E008C9121F08C0042AFAD203E011F836
:1041F000013B00F8013B521EF9D27047D2B201E0F8
:1042000000F8012B491EFBD270470022F6E710B5DB
:1042100013460A4604461946FFF7F0FF204610BD34
:1042200030B505462A460B4612F8010B13F8014B30
:1042300008B1A042F8D01CB1002802D06D1CF1E7F3
:10424000284630BD421C10F8011B0029FBD1801A02
:10425000704700000FB400B58DB010A909900B9005
:1042600000914FF0FF300A9000200C900548069016
:10427000054807906A4609A80F9900F079F90DB032
:104280005DF814FB8D450008AB4500082DE9FF5F84
:104290001D464FF0FF3BD5E9014691465F464FF082
:1042A0000008A9697F1C01988847296A82468847C7
:1042B0000028F6D1BAF1FF3F0CD024F4C064002EE0
:1042C00019DD600614D5BAF12B0F09D0BAF12D0F04
:1042D0000ED103E0584604B0BDE8F09F44F480647A
:1042E000A9697F1C01988847761E8246002E02DD50
:1042F000BAF1300F03D0B9F1000F26D032E0A9692E
:10430000761E44F400747F1C019888478246002E74
:1043100005DDBAF1780F06D0BAF1580F03D0B9F124
:10432000000F10D01EE0B9F1000F02D0B9F1100F4C
:1043300018D1A969761E24F400747F1C019888475F
:104340008246102002E0082000E00A20814609E0B1
:1043500008FB0908A969761E44F400747F1C0198C3
:1043600088478246002E05DD4946504600F0EBF8AE
:104370000028EDDAE96901988847A00502D46FF0BA
:104380000100A8E7E00725D1600613D5600502D536
:10439000C8F1000000E0404629680A1D2A6009684B
:1043A000220501D5087015E0220701D5088011E02B
:1043B00008600FE02868011D29600068210502D50A
:1043C00080F8008006E0210702D5A0F8008001E017
:1043D000C0F8008038467EE72DE9FF5FD2E901A7EB
:1043E0004FF00008916999461446DDF838B046460A
:1043F00001988847054659EA0B0005D009E0A169F4
:10440000761C019888470546216A28468847002877
:10441000F5D1681C03D05FEACA7005D015E04FF0F3
:10442000FF3004B0BDE8F09F2068011D2160D0F886
:1044300000800AE05FEACA7001D108F8015BA16957
:10444000761C7F1E019888470546002F1ADD681CE0
:1044500018D0B9F1000F0DD0E81705EBD06042116C
:1044600020F01F0059F822102A1A01209040014222
:10447000E0D107E0BBF1000FDCD1216A2846884774
:104480000028D7D0E16901988847BBF1000F07D118
:10449000002E05DD5FEACA7002D1002188F8001005
:1044A000A068B84203DDBBF1000F03D017B16FF075
:1044B0000100B6E73046B4E730B50B4601460020B0
:1044C0002022012409E021FA02F59D4205D303FAD6
:1044D00002F5491B04FA02F52844151EA2F1010257
:1044E000F1DC30BD2DE9F05F0546002092469B4689
:1044F00088460646814640241BE0284641464746FA
:10450000224600F03CFA53465A46C01A914110D355
:1045100011461846224600F023FA2D1A67EB0108CF
:104520004F4622460120002100F01AFA17EB00093D
:104530004E41201EA4F10104DFDC484631462A46E4
:104540004346BDE8F09F3A2800D2303820F02002E0
:10455000412A01D3A2F13700884201D34FF0FF3046
:1045600070470000026811441378016018467047D4
:10457000D160044951610449116200211161114661
:1045800000F024BA65450008C3490008426842B1FA
:10459000016811F8013B23B1521EC0E90012184610
:1045A00070470121C160881E704742685AB1C368D4
:1045B000016843B983688B4205D0491E521CC0E98B
:1045C0000012002070474FF0FF3070472DE9FE4F7A
:1045D000804681EA0300C00F0C46009021F00041A4
:1045E00023F00045B8EB0200A94105D24046214620
:1045F00090461C460B46024623F00040104347D02D
:10460000270DC7F30A00C3F30A510290401A019024
:1046100040286BDAC3F3130040F4801B00989246E5
:1046200020B10023D2EB030A63EB0B0B0198594630
:10463000C0F14002504600F093F906460D46504640
:104640005946019A00F0ABF910EB080061410024D3
:1046500087EA115284EAE7731A4340D0009A62B3A2
:10466000019A012A4FEA075215DC001B61EB020197
:104670004FF0004202EA0752CDE90042001C41F52A
:10468000801132462B4600F048FB03B0BDE8F08FA6
:1046900040462146F9E7001B61EB0201001C41F591
:1046A000801300185B412018A2F5001747EB0301A7
:1046B00040EAD570B6196D4111E06D084FEA360633
:1046C00045EAC0754FEA0752001B61EB0201001C6E
:1046D00041F5801149084FEA300000195141324636
:1046E0002B4603B0BDE8F04F00F008BB0098012254
:1046F00040000023D0EB020263EBE07300982146F8
:104700004FEAE074B8EB000061EB0401E9E783F0E5
:1047100000435BE781F0004158E72DE9FE4F81EA55
:10472000030404F0004421F0004100944FF0000B1A
:1047300023F0004350EA01045ED052EA03045BD048
:10474000C3F30A54C1F30A552C44A4F2F334019480
:10475000A0FB0254C1F3130141F48011C3F313030E
:1047600043F4801301FB024400FB034E840A970AC2
:1047700044EA815447EA8357A4FB076802958D0AEF
:1047800005FB07854FEA932C04FB0C542705029D7B
:104790004FEA065847EA1637B5EB08056EEB070CEB
:1047A000870E920E47EA811742EA8312A7FB0201A5
:1047B000B6EB0B0164EB00042B0D43EA0C335E18DF
:1047C00044EB1C50DA465146E7FB0201C5F31304E3
:1047D0004FEA0B3343EA14534FEA0432019C43EA95
:1047E0000603A4F10C040294009CCDE900B400F08F
:1047F00094FA03B0BDE8F08F00200146F9E72DE9F7
:10480000F04D81EA030404F0004B21F0004514460A
:104810004FF0000A23F0004150EA050220D054EA8C
:1048200001021DD0C5F30A570246C5F31303C1F3B5
:104830001300C1F30A5640F4801543F48013A7EB2C
:104840000608101BD64608F2FD3873EB050002D3AC
:1048500008F1010801E092185B41B8F1000F03DA9A
:1048600000200146BDE8F08D00204FF4801106467F
:1048700084460EE0171B73EB050705D3121B63EB91
:10488000050306434CEA010C49084FEA3000921830
:104890005B4150EA0107EDD152EA030012D082EAEF
:1048A000040083EA0501084305D0101BAB4106D282
:1048B0000122002306E000224FF0004302E06FF0E7
:1048C000010253101AEB06004CEB085110EB0A00E2
:1048D00041EB0B01BDE8F04D00F010BAC1F30A52F4
:1048E000C1F3130140F2FF3341F480119A4202DA1E
:1048F00000200146704740F233439A42A2F233420D
:1049000002DC524200F03BB800F02AB830B5041E79
:1049100071F1000404DB4FF00044404264EB0101FC
:10492000141E73F1000405DB1C464FF00043524295
:1049300063EB0403994208BF904230BD064C074D1B
:1049400006E0E06840F0010394E80700984710345F
:10495000AC42F6D3FFF7DAFB60A3000880A300089F
:10496000202A04DB203A00FA02F10020704791402F
:10497000C2F1200320FA03F3194390407047202A24
:1049800004DB203A21FA02F00021704721FA02F3F9
:10499000D040C2F120029140084319467047202AB6
:1049A00006DBCB17203A41FA02F043EAE07306E057
:1049B00041FA02F3D040C2F1200291400843194667
:1049C0007047C0B24FF4F05100F0F6B92DE9F34F43
:1049D0008BB04FF0000801F10C000C464FF0010BBA
:1049E00046460DF1080A019062690121019890473D
:1049F000051E2DD0252D2CD0216A8847C0B16269B3
:104A0000012101989047216A88470028F7D1411E6B
:104A100062690198904700E0761CA1690B9888476D
:104A2000216A88470028F7D1E1690B988847DBE7BE
:104A3000A1690B9888470746A84201D1761CD3E7A5
:104A4000E1690B9888477F1C02D1B8F1000F6FD045
:104A500047E1002762693D463946019890472A2878
:104A600004D162690121019890470125DFF88892FD
:104A70006269012101989047A0F130010A290AD208
:104A80004F45E5DC07EB870100EB4107303FDFD402
:104A900045F01005ECE7E90601D46FF000476C28FB
:104AA0000AD04C2814D0682815D06A280DD0742854
:104AB0001CD07A281AD01DE0626901210198904724
:104AC0006C2802D045F0040514E045F002050DE025
:104AD00045F020050AE062690121019890476828A5
:104AE00002D045F0080505E045F400656269012142
:104AF00001989047C4E9015765283DD019DC582832
:104B00007AD00CDC452837D004DC252826D0412873
:104B100031D131E046282FD047282CD12CE05B281A
:104B200077D0612828D063287CD0642823D15AE02C
:104B3000D1E06F2848D008DC66281DD067281BD03C
:104B4000692821D06E2816D127E0702845D0732817
:104B500068D0752847D078280DD14DE0A1690B9811
:104B60008847054625283FF469AFE1690B988847D7
:104B70006D1C3FF46AAFB4E023466A466FF0010053
:104B80000B99AFF300809FE045F040006060A807FC
:104B900023464FF0000236D43EE0E8077FF447AFEB
:104BA0002068011D21600068290501D506701BE7FA
:104BB000290701D5068017E7A90703D5F117C0E932
:104BC000006111E706600FE745F040006060A8074C
:104BD00023464FF0080216D41EE040F60E0125EAE7
:104BE0000100606016E045F040006060A8072346C1
:104BF0004FF00A0207D40FE045F040006060A807BC
:104C000008D5234610226FF001000B99AFF3008006
:104C10005AE007E0234610226FF001000B99FFF7DE
:104C200035FB51E04FF000094F464B46632802D058
:104C30005B2807D041E02079C00601D40120A060A4
:104C400001273AE062690121019890475E2805D169
:104C50004FF001096269494601989047216939B9C5
:104C600000210A46534643F82120491C0829FADB53
:104C7000B0B3216969B9C11700EBD16253110AEBD6
:104C8000830122F01F02821A01200B689040034327
:104C90000B6062690121019890475D28E8D1B9F164
:104CA000000F09D00020514651F82020D24341F88E
:104CB0002020401C0828F7DB02AB224600976FF04B
:104CC00001000B99FFF788FB00280CDA401C08D183
:104CD000BBF1000F05D04FF0FF300DB0BDE8F08FF5
:104CE000FFE74046F9E7E90701D108F1010806446A
:104CF0004FF0000B78E60000CCCCCC0C10B5141EA5
:104D000073F1000408DA401C41F1000192185B4184
:104D10001A4301D120F0010010BD2DE9F04D92465B
:104D20009B4611B1B1FA81F202E0B0FA80F2203272
:104D30009046FFF715FE04460F4640EA0A0041EA96
:104D40000B0153465A46084313D0114653EA01005B
:104D500019D0C8F140025046FFF711FE05460E4635
:104D6000504659464246FFF7FBFD084305D0012057
:104D700004E020463946BDE8F08D0020054346EAB0
:104D8000E0762C4337430A986305E40AA0EB080059
:104D90000022FD0A44EA47540A3002D500200146A9
:104DA000E9E7010510196941DDE908450019694184
:104DB000BDE8F04DA2E700007F2801D9002208E0FD
:104DC000064A02EB5002C007127800D1120902F025
:104DD0000F0201209040084070470000F49F000837
:104DE00010B500F087FA002010BD2DE9F04107460C
:104DF0000D46164600F03CFBA02000F007FB00F03B
:104E000073FB10B10120BDE8F081384600F0FEFAD6
:104E100000F06AFB08B10220F5E700F029FBA120B1
:104E200000F0F4FA00F060FB08B10320EBE7002487
:104E300005E0012000F08CFA2855601C84B2701E39
:104E4000A042F6DC002000F083FA711E685400F0E6
:104E50002DFB0020D7E72DE9F04105460E46174609
:104E600000240AE0315D2A19D0B200F00AF810B12E
:104E70000120BDE8F081601C84B2BC42F2DB00205E
:104E8000F7E770B505460C4600F0F2FAA02000F0F6
:104E9000BDFA00F029FB08B1012070BD284600F0E2
:104EA000B5FA00F021FB08B10220F6E7204600F039
:104EB000ADFA00F019FB08B10320EEE700F0F6FAB6
:104EC000052000F018FD0020E7E700002DE9FC4177
:104ED000044688462079E17840EA0126671D0025CE
:104EE00025E0795D3A48B0F81421B0F81401401C6F
:104EF000374BA3F8140103F1140081541438B0F8AF
:104F00001401B0F5807F10D118460069C0F30F215D
:104F100003F1140002F0B1F82D48006900F580702B
:104F20002B4908610020A1F81401681C85B2B54224
:104F3000D7DB2748806830442549886008464268A6
:104F4000816824A003F0A2FF2148806820494968B5
:104F500088423AD31E48B0F8140100280DDD1C48E1
:104F60000069C0F30F211A48143002F086F818487F
:104F7000B0F814111EA003F089FF27A003F086FFEC
:104F8000134800798DF8040011488088000A8DF8D4
:104F900005000F484068000C8DF806000C4840687A
:104FA000000E8DF80700042201A90120FFF753FF2E
:104FB0005A200090012269460020FFF74CFF642030
:104FC00000F099FC00F080F900BF0120BDE8FC81F1
:104FD000784100205B4F54412D4C6F6769635D2021
:104FE000BDF8B6C83A202564202F2025640D0A009C
:104FF0005B4F54412D4C6F6769635D20CEB2B2BFE9
:1050000020256420D7D6BDDAB2B9C6EBD0B4C8EB40
:10501000A1A30D0A000000000D0A5B4F54412D4C66
:105020006F6769635D20B9CCBCFEB6D4C6EBD0B463
:10503000C8EBCDEAB1CFA3A1BFAACABCC1A2D2C559
:10504000D6F62E2E2E0D0A0070B504460D46E078D9
:105050000006217940EA0140617940EA0120A17906
:1050600008430B494860207AE17940EA0120084969
:105070008881002088600861A1F814010846416811
:1050800004A003F003FF002001F0D5FF012070BD54
:10509000784100205B4F54412D4C6F6769635D2060
:1050A000CAD5B5BDC9FDBCB6D6B8C1EEA3A1B4F38F
:1050B000D0A13A2025640D0A0000000000BFFEE7E1
:1050C00000B587B04FF4A06003F03CFE0421144803
:1050D00002F0A6FE134800900020019012480290B2
:1050E000002003904FF48070049040010590002050
:1050F0008DF8180001208DF8190000208DF81A0095
:105100006A460421064802F0C3FE0421044802F066
:105110006EFE0421024802F051FE07B000BD0000FF
:105120000000024004380140AA090020704700EB4B
:10513000C002510000E000BF0A1EA1F10101FAD136
:10514000704700002DE9F04105460F461646002441
:1051500000BF002227492848006800F010FC002802
:10516000F7D126A003F092FE284601F0E7FE29A021
:1051700003F08CFE35E00A221E491F48006800F04B
:10518000FEFB012820D100211A480288801C81548E
:10519000014628A003F07AFE39461648801CFFF726
:1051A0003FF830B1394628A003F070FE0120BDE879
:1051B000F0812BA10F48801CFFF732F820B12AA004
:1051C00003F064FE0020F2E70A344FF4FA60B4FB07
:1051D000F0F100FB114020B92246394629A003F026
:1051E00055FEB442C7D329462FA003F04FFE00203E
:1051F000DDE70000743F00201C0000205B44656276
:1052000075675D20D6B4D0D0B7A2CBCD2E2E2E0D93
:105210000A0000005B44656275675D20B7A2CBCDD4
:10522000CDEAB3C9A3ACB5C8B4FDBBD8D3A62E2E66
:105230002E0D0A003C3C205B4553502D5261775D9A
:105240003A2025730D0A00005B44656275675D2096
:10525000C6A5C5E4B3C9B9A63A2025730D0A000056
:105260004552524F520000005B44656275675D20F5
:1052700045535020B7B5BBD8C1CB204552524F52F1
:105280000D0A00005B44656275675D20BBB9D4DA26
:10529000B5C8202573A3ACD2D1BAC4CAB120256445
:1052A0006D732E2E2E0D0A005B41542D456E6769DD
:1052B0006E655D20B3B9B5D7B3ACCAB1A3A1D6B8FA
:1052C000C1EE3A202573000000BFBFF34F8F07489F
:1052D000006800F4E06006490843001D03490860C7
:1052E000BFF34F8F00BF00BFFEE700000CED00E0F2
:1052F0000000FA0510B540F2036003F023FDC0235F
:1053000003221421114802F0EDFE80210F4802F023
:10531000E7FE00240EE040210C4802F0E1FE0520EB
:10532000FFF705FF4021094802F0D8FE0520FFF7EE
:10533000FEFE641C092CEEDB4021044802F0D0FE86
:105340008021024802F0CCFE10BD0000000C01409C
:1053500070B50546002600F0DBFA80212A4802F0ED
:10536000BFFE072418E04021274802F0B7FE0220C4
:10537000FFF7DDFE4021244802F0B2FE80212248E2
:1053800002F006FF18B10120A0403043C6B202204F
:10539000FFF7CDFE601E44B2002CE4DA40211A482B
:1053A00002F09CFE00F0B8FAB5B100F0B1FA80212D
:1053B000154802F093FE0220FFF7B9FE4021124883
:1053C00002F08EFE0220FFF7B2FE40210E4802F0EE
:1053D00085FE00F0A1FA15E000F09AFA80210A4853
:1053E00002F07EFE0220FFF7A2FE4021064802F0F6
:1053F00077FE0220FFF79BFE4021034802F06EFE7D
:1054000000F08AFA304670BD000C014070B50546C8
:1054100000F07EFA07241CE04021144802F05EFEF2
:105420000120A040284020B18021104802F058FE01
:1054300003E080210D4802F051FE0220FFF777FEC5
:1054400040210A4802F04CFE0220FFF770FE601E69
:1054500044B2002CE0DA4021044802F03FFE8021F3
:10546000024802F03DFE00F057FA70BD000C01400A
:1054700010B500F04DFA40210B4802F031FE8021BA
:10548000094802F02DFE0220FFF751FE8021064858
:1054900002F024FE0220FFF74AFE4021024802F0FB
:1054A0001DFE00F039FA10BD000C014010B500F0EF
:1054B0002FFA40210B4802F011FE8021094802F02A
:1054C0000DFE0220FFF733FE4021064802F008FEE1
:1054D0000220FFF72CFE8021024802F001FE00F0BE
:1054E0001BFA10BD000C014010B5642400F010FA46
:1054F0008021154802F0F4FD0120FFF718FE40213D
:10550000114802F0EDFD0120FFF711FE0DE0601ED5
:1055100004B23CB940210C4802F0E0FD00F0FCF977
:10552000012010BD0120FFF702FE8021064802F095
:105530002FFE0028EBD14021034802F0CFFD00F000
:10554000EBF90020EDE70000000C014010B502F07F
:10555000ADFD10BD10B54FF4106003F073FB00BF3C
:105560004FF4106003F07EFB0128F9D102F0AEFD8C
:10557000062140F20D3002F065FD02F09FFD02F0C1
:1055800095FD10BD10B51021014802F0A9FD10BD18
:105590000008014010B51021014802F09FFD10BD28
:1055A0000008014010B50548006828B14FF0FF31F0
:1055B0000248006800F0C3F910BD00001800002088
:1055C00010B5044600BF02210A4803F0F1FB012890
:1055D000F9D12146074803F0E9FB00BF0121054846
:1055E00003F0E6FB0128F9D1024803F0DBFBC0B26F
:1055F00010BD00000030014010B50448006818B12B
:105600000248006800F091F910BD00001800002069
:1056100000BFBFF34F8F0748006800F4E060064901
:105620000843001D03490860BFF34F8F00BF00BF50
:10563000FEE700000CED00E00000FA052DE9F04760
:105640000546002403274FF00A084FF0790907F1B7
:105650000C0008F10201014409F102000E181022A9
:105660002146641C6A5400BF3046F21706EB5262B2
:10567000D211A6EBC212D1B2F21706EB5262C2F3FC
:10568000CF16002E01DD41F080012046621C94B24D
:105690002954002EE8DC00222046611C8CB22A54DA
:1056A00004222046611C8CB22A544D222046611CE3
:1056B0008CB22A5451222046611C8CB22A545422A6
:1056C0002046611C8CB22A542046611C8CB22A549C
:1056D00004222046611C8CB22A54C2222046611C3E
:1056E0008CB22A5400222046611C8CB22A543C22DF
:1056F0002046611C8CB22A543A0A2046611C8CB2A6
:105700002A542046611C8CB22F5428193A4617A1FE
:10571000FEF762FDE01984B24FEA18222046611CB0
:105720008CB22A542046611C8CB205F800802819DE
:1057300042460FA1FEF750FD04EB080084B24FEA89
:1057400019222046611C8CB22A542046611C8CB25E
:1057500005F8009028194A460849FEF73DFD04EB7C
:10576000090084B22046BDE8F08700006573700030
:1057700031436376326A6E4132350000ACA10008D5
:1057800070B5ADF50A7D2A48FFF758FF064629A0F7
:1057900003F07CFB324630A182A801F063FE4FF497
:1057A000FA6231A182A8FFF7CDFC18B900200DF5EF
:1057B0000A7D70BD31461E4801F0A8FB00252DE092
:1057C000642201A92948006800F0D9F8002824D0F3
:1057D00000241EE00DF10600005D202818D10DF117
:1057E0000600611C405C022812D10DF10600E11C8C
:1057F000405C20B91EA003F049FB0120D7E70DF162
:105800000600E21C815C27A003F040FB0020CEE7ED
:10581000641CBDF80400A042DCDC643541F2883031
:105820008542CDD328A003F031FB0020BFE7000064
:105830008A0200205B4F6E654E45542D4170705DAD
:1058400020B7A2CBCD204D51545420B5C7C2BCB017
:10585000FC2E2E2E0D0A000041542B434950534577
:105860004E443D25640D0A003E0000001C0000204F
:105870005B4F6E654E45542D4170705D203E3E3E3F
:1058800020D5E6D5FDB5C7C2BCB3C9B9A6A3A1CA88
:10589000D5B5BD20434F4E4E41434B203C3C3C0DC3
:1058A0000A0000005B4F6E654E45542D4170705DDF
:1058B00020B5C7C2BCCAA7B0DCA3ACB4EDCEF3C25E
:1058C000EB3A2025640D0A005B4F6E654E45542D62
:1058D0004170705D20B5C7C2BCB3ACCAB1A3ACD433
:1058E000C6B6CBC3BBC0EDCED22E2E2E0D0A000005
:1058F00000BFFEE7704770B504464FF47A7060430E
:105900004FF47A71B0FBF1F5284603F0A1FC70BDAD
:1059100010B503F049FC10BD10B503F057FC10BDE5
:1059200010B5012003F0C2FD10BD10B504462CB126
:1059300000231A461946204603F040FE10BD70B5FC
:1059400005460C468DB1601C10B94FF0FF3006E0E3
:105950004FF47A7060434FF47A71B0FBF1F0064671
:105960003146284603F084FF00BF70BD70B5044681
:105970000D4600222946204603F0A9FD70BD2DE901
:10598000F04105460E461446601C10B94FF0FF303A
:1059900006E04FF47A7060434FF47A71B0FBF1F097
:1059A00007463A463146284603F0E0FE012801D179
:1059B000BDE8F0810020FBE72DE9F04105460E46E9
:1059C0001446601C10B94FF0FF3006E04FF47A70B7
:1059D00060434FF47A71B0FBF1F0074600233A467A
:1059E0003146284603F0EAFD012801D1BDE8F081E7
:1059F0000020FBE7F8B504460D4600200090002388
:105A00006A462946204603F065FE064600BF009818
:105A100038B14FF0805006490860BFF34F8FBFF395
:105A20006F8F00BF012E01D10120F8BD0020FCE7DF
:105A300004ED00E010B503F0B1FC10BD2DE9FC470A
:105A400004460D4616461F46DDE90A893B463246A6
:105A500029462046CDE9008903F0D2FFBDE8FC8746
:105A600010B5002006490870486088600549087034
:105A700000F0C2F80348017803A003F007FA10BD54
:105A800078410020840000205B46534D2D456E6711
:105A9000696E655D20C4DABACBC6F4B6AFA3A1B90E
:105AA000B2B9D2D4D820256420B8F6D7B4CCACC2D1
:105AB000B7D3C9A1A30D0A002DE9F04105460F4651
:105AC000032F05DB2878AA2802D16878552804D04E
:105AD00015A003F0DBF9BDE8F081AE78002418E0F2
:105AE0001B4810F834001B49097888420FD1184828
:105AF00000EBC4004078B04209D1154800EBC40067
:105B0000394642682846904712490870E3E7601C0E
:105B1000C4B2114800788442E2DB31460FA003F0A2
:105B2000B5F900BFD7E700005B46534D2D456E67C2
:105B3000696E655D20B0FCCDB7D0A3D1E9CAA7B02E
:105B4000DCA3A1D6B1BDD3C5D7C6FAA3A10D0A0067
:105B50009042002078410020840000205B46534D95
:105B60002D456E67696E655D20C0B9BDD8B7C7B7F2
:105B7000A8CAC2BCFE3A203078253032580D0A003F
:105B800070B505460E46144611480078142804DB0B
:105B900010A003F07BF9002070BD0CB90020FBE7DA
:105BA00014480B49097800F831500949097800EB8D
:105BB000C10046700F480649097800EBC1004460F7
:105BC00003480078401C024908700120E4E7000007
:105BD000840000205B46534D2D456E67696E655D00
:105BE00020A3BAD7A2B2E1B1EDD2D1C2FAA3A10DDE
:105BF0000A0000009042002010B5054A0121002053
:105C0000FFF7BEFF034A02210120FFF7B9FF10BDD5
:105C100049500008CD4E00082DE9F04FADF2BC4DC3
:105C20000120B74908700020CDF8B804B5A003F0F2
:105C30002DF95023C0A2C6A1CC4801F013FC4FF4AB
:105C4000FA52CBA1C948FFF77DFA38B9CAA003F0D0
:105C50001DF900200DF2BC4DBDE8F08F4FF47A72B3
:105C6000CEA1CFA0FFF76EFA4FF47A72D0A1D1A0E7
:105C7000FFF768FAD3A003F009F900BF0022ADA92D
:105C8000D8480068FFF77BFE0028F7D1D6480368A4
:105C9000D6A102688DA801F0E5FB8DA8FEF7D2FA27
:105CA0008146D1480168DBA003F0F0F88DA8A2A1DD
:105CB000E24AE3A3CDE9011900920390E1A2E4498D
:105CC000AA4801F0CFFBA94801F038F900208C90D8
:105CD00000241DE06422ADA9C2480068FFF74FFE12
:105CE000A8B10021BDF8B4220DF2B62081540146BE
:105CF000D8A003F0CBF8DCA10DF2B620FEF790FAA5
:105D000028B101208C90DCA003F0C0F802E0641CF4
:105D10001E2CDFDB00BF8C9810B9DEA003F0B6F8B4
:105D2000E9A003F0B3F884A1C448AF4A1268C4A341
:105D3000CDE900200291C3A2EC498C4801F092FB0E
:105D40008A4801F0FBF800208B9080463AE06422FC
:105D5000ADA9A4480068FFF712FE002830D000214A
:105D6000BDF8B4220DF2B6208154E1A1FEF758FA35
:105D700018B1E4A003F08AF827E0EFA10DF2B620F5
:105D8000FEF74EFA0446EEA10DF2B620FEF748FAF1
:105D90000646A4B19EB1EC4AECA12046FEF75AFAA1
:105DA0000DF59762ECA13046FEF754FA01208B9076
:105DB000E549ECA0DDF8B82403F068F805E000BF81
:105DC00008F10108B8F1320FC1DB00BF8B98002841
:105DD0001BD1F1A003F05AF84FF4FA70FFF78BFDD6
:105DE000FBA001F0ABF84FF47A70FFF784FD4FF49D
:105DF0007A726AA1F7A0FFF7A5F94FF47A7267A14A
:105E0000F8A0FFF79FF9002024E7FAA003F03EF87E
:105E10000920ADF81C01AA208DF81E01552147A8C4
:105E2000C17001210171DDF8B804000E47A9487165
:105E3000DDF8B804010C47A88171DDF8B804010A47
:105E400047A8C171DDF8B804C1B247A801720021AA
:105E500041728172BDF81C11801CFFF72DFE0025D8
:105E6000002751E205F1FF08DDF8B804804503D3AF
:105E7000DDF8B804A0F10108A8EB0500441C2EA031
:105E80006E49CDE90358CDE90110AF486CA36DA26E
:105E9000E4490090354801F0E5FA00BF0022ADA9C1
:105EA00050480068FFF76BFD0028F7D12F4801F03C
:105EB00045F84FF0000AD346B8E16422ADA949483D
:105EC0000068FFF75CFDC8B1BDF8B40202280AD132
:105ED0009DF8B6020D2806D1ADA8C0780A2802D1D7
:105EE0004FF0010AA6E1BDF8B402012806D19DF8E1
:105EF000B6020A2802D14FF0010A9BE194E10000AA
:105F0000100000200D0A3D3D3D205B4854545020B8
:105F10004F54415D20C6F4B6AF204F6E654E4554D8
:105F20002048545450204F544120C1F7B3CC203D59
:105F30003D3D0D0A00000000696F742D6170692EEF
:105F40006865636C6F7564732E636F6D000000008D
:105F500041542B43495053544152543D22544350D1
:105F6000222C222573222C25640D0A008A0400208D
:105F7000434F4E4E454354005B48545450204F54B9
:105F8000415D20C1ACBDD3204854545020B7FECE53
:105F9000F1C6F7CAA7B0DCA3A10D0A004F4B000061
:105FA00041542B4349504D4F44453D310D0A0000AB
:105FB0003E00000041542B43495053454E440D0AC6
:105FC000000000005B48545450204F54415D20B302
:105FD000C9B9A6BDF8C8EBCDB8B4ABC4A3CABDA3BC
:105FE000A10D0A001C000020080000207B22735F26
:105FF00076657273696F6E223A222573222C2022F5
:10600000665F76657273696F6E223A20222573226D
:106010007D0000005B48545450204F54415D202DBA
:106020003E20B6AFCCACC9CFB1A8B5B1C7B0B0E6D1
:10603000B1BE3A2025730D0A0000000028A2000816
:106040006573700031436376326A6E413235000009
:1060500094A200083C3C205B504F53542D52617772
:106060005D3A2025730D0A00226D7367223A227370
:1060700075636322000000005B48545450204F5465
:10608000415D20B0E6B1BEC9CFB1A8B3C9B9A6A3DE
:10609000A10D0A005B48545450204F54415D20B07C
:1060A000E6B1BEC9CFB1A8B3ACCAB1BBF2CAA7B002
:1060B000DCA3A1BCCCD0F8C7BFD0D0B2E9D1AF2E01
:1060C0002E2E0D0A000000005B48545450204F54FF
:1060D000415D202D3E20B2E9D1AFCAC7B7F1D3D080
:1060E000D0C2B9CCBCFE2E2E2E0D0A00ECA00008AA
:1060F000226D7367223A226E6F742065786973741B
:10610000220000005B48545450204F54415D20BD94
:10611000E1B9FB3A20B5B1C7B0B0E6B1BED2D1CA41
:10612000C7D7EED0C2A3ACCEDEB8FCD0C2C8CECEAC
:10613000F1A1A30D0A00000022746964223A000054
:106140002273697A65223A008A0600202274696403
:10615000223A255B5E2C5D002273697A65223A251E
:10616000640000005B48545450204F54415D20B7F8
:10617000A2CFD6D0C2B9CCBCFE21205449443A208B
:1061800025732C20B4F3D0A13A20256420427974E1
:1061900065730D0A000000005B48545450204F54B2
:1061A000415D20CDCBB3F6CDB8B4ABA3ACB6CFBF79
:1061B000AA2048545450A3ACD7BCB1B8C7D0BBBB7D
:1061C000B5BD204D5154542E2E2E0D0A0000000056
:1061D0002B2B2B0041542B4349504D4F44453D3010
:1061E0000D0A000041542B434950434C4F53450D79
:1061F0000A0000000D0A5B48545450204F54415D82
:1062000020D7BCB1B8BBBDD0D12046534D20D7B4A8
:10621000CCACBBFAB2C1B3FD20466C6173682E2EC4
:106220002E0D0A0090A000080BF1010BBBF1320FFC
:10623000FFF643AE00BFBAF1000F0AD129464AA0CB
:1062400002F024FE781CC0B20746032800DD69E096
:106250005AE000260120069024E04FF49672ADA982
:106260004C480068FFF78BFBA0B1A01B0590BDF860
:10627000B4120598814202D8BDF8B40200E0059836
:10628000834607A988195A460DF2B621FDF7A4FFE7
:106290005E4407E0224631463FA002F0F7FD0020B1
:1062A000069001E0A642D8D300BF069830B9781C0A
:1062B000C0B20746032800DD34E025E0601D80B24F
:1062C000ADF81C01AA208DF81E01552147A8C17008
:1062D00002210171210A41718471224607A9C01D62
:1062E000FDF77AFFBDF81C110DF58F70FFF7E4FB89
:1062F00025440027294634A0DDF8B82402F0C6FD65
:10630000012000F0FFFE00BFDDF8B8048542FFF475
:10631000A9AD384802F0BAFD03E04FF47A70FFF7F8
:10632000EAFAFAE734A002F0B1FD4FF4FA70FFF791
:10633000E2FAAFF2641000F001FE4FF47A70FFF75A
:10634000DAFA4FF47A72AFF2AC31AFF27810FEF7AE
:10635000F9FE4FF47A72AFF2BC31AFF27810FEF76B
:10636000F1FE002076E400005B48545450204F5466
:10637000415D20C7EBC7F3C6ABD2C620256420B36E
:10638000ACCAB1A3ACD7BCB1B8D6D8CAD4A3A10DFE
:106390000A0000001C0000205B48545450204F5459
:1063A000415D20B6FEBDF8D6C6CAFDBEDDB6CFC182
:1063B000F7A3A1D2D1CAD5202564202F20D0E82070
:1063C00025640D0A000000005B48545450204F54CF
:1063D000415D20C6ACB6CED0B4C8EBB3C9B9A6A354
:1063E000A1D7DCBDF8B6C83A202564202F2025644B
:1063F0000D0A000060A100085B48545450204F541F
:10640000415D20BCABC6E4B2D2C1D2A3BAC1ACD00C
:10641000F8D6D8CAD4CAA7B0DCA3ACCDCBB3F6CDDE
:10642000B8B4ABA3ACB7C5C6FA204F5441A1A30D75
:106430000A0000002DE9F04389B0804689464046B5
:10644000FDF700FF86B24846FDF7FCFE87B2B01CA0
:10645000384485B2002430222146641C2748425427
:1064600000BF2846EA1705EB5262D211A5EBC21213
:10647000D1B2EA1705EB5262C2F3CF15002D01DD50
:1064800041F080012046621C94B21C4A1154002D38
:10649000E7DC320A2046611C8CB218490A542046B7
:1064A000611C8CB215490E54081932464146FDF75D
:1064B00093FEA01984B2114908193A464946FDF7DE
:1064C0008BFEE01984B222460DA101A800F0CAFF9C
:1064D0004FF4FA620EA101A8FEF734FE40B1214646
:1064E000064800F013FD21460AA002F0CFFC02E0AE
:1064F00010A002F0CBFC09B0BDE8F083AA07002091
:1065000041542B43495053454E443D25640D0A00E8
:106510003E0000005B4D5154545D20CFFBCFA2D212
:10652000D1CDB6B5DDA3ACB3A4B6C83A2025640D71
:106530000A0000005B4D5154545D20B7A2CBCDCA78
:10654000A7B0DCA3AC4553503832363620CEB4CF9A
:10655000ECD3A6203E20B7FBBAC5A1A30D0A0000CC
:10656000F0B589B007463846FDF76CFE86B2701D5F
:1065700085B2002482222146641C2D48425400BF6B
:106580002846EA1705EB5262D211A5EBC212D1B22E
:10659000EA1705EB5262C2F3CF15002D01DD41F081
:1065A00080012046621C94B2214A1154002DE7DC80
:1065B00000222046611C8CB21D490A540A22214641
:1065C000601C84B21A484254320A2046611C8CB2C4
:1065D00017490A542046611C8CB215490E540819FB
:1065E00032463946FDF7F8FDA01984B20022204654
:1065F000611C8CB20E490A5422460EA101A800F07B
:1066000031FF4FF4FA620FA101A8FEF79BFD68B1BC
:106610002146074800F07AFC39460BA002F036FC10
:10662000C820FFF768F9012009B0F0BD0020FBE7A2
:10663000AA06002041542B43495053454E443D2562
:10664000640D0A003E0000005B4D5154545D20B3C0
:10665000C9B9A6B7A2CBCDB6A9D4C4C7EBC7F3A31B
:10666000ACBCE0CCFDC6B5B5C03A2025730D0A0020
:1066700000B5A1B040F25B7306A20BA101A800F027
:10668000F1FE4FF4FA520FA101A8FEF75BFD21B015
:1066900000BD00006D717474732E6865636C6F7556
:1066A00064732E636F6D000041542B434950535463
:1066B0004152543D22544350222C222573222C2532
:1066C000640D0A00434F4E4E45435400E6B09B48CC
:1066D000006830B94FF488710A20FFF747F99749ED
:1066E0000860FFF7BDF996A002F0D0FB00F09EFD18
:1066F00040B99FA002F0CAFB03E04FF47A70FFF7A5
:10670000FAF8FAE7A8A002F0C1FBFFF785FAFFF755
:10671000AFFF40B9ACA002F0B9FB03E04FF47A70D0
:10672000FFF7E9F8FAE7B2A002F0B0FBFFF728F8AC
:1067300040B9B6A002F0AAFB03E04FF47A70FFF76D
:10674000DAF8FAE7BDA002F0A1FBC5A002F09EFBBB
:10675000BAA002F09BFBC9A3C9A2CCA146A800F035
:1067600081FE46A8FFF7FCFE00204590012245A9C6
:106770001020FEF73AFB9DF81401AA282DD104221F
:1067800044A91120FEF731FB9DF8100100069DF889
:10679000111140EA01409DF8121140EA01209DF8D4
:1067A000131140EA01042146C0A002F06FFBCCA304
:1067B000CE4A802124A8009400F03AFE24A9CCA05F
:1067C000FFF738FE00202390012223A91020FEF7B6
:1067D00042FBD1A002F05AFB00BFAEE0012000F066
:1067E00091FC4FF47A72D549D5480068FFF7C7F895
:1067F0000128F2D10021D1480288801C8154014631
:10680000D0A002F043FB0024CC4800880A2845DDD4
:1068100000203DE0C949891C095C732937D1C7496B
:10682000891C421C895C772931D1C449891C821C8E
:10683000895C69292BD1C149891CC21C895C7429D6
:1068400025D1BE49891C021D895C63291FD1BB4922
:10685000891C421D895C682919D1B849891C821D8F
:10686000895C5F2913D1B549891CC21D895C6229E5
:106870000DD1B249891C521C895C752907D1AF49D9
:10688000891C521C895C672901D1012405E0401C48
:10689000AA4909880A398142BCDC00BF002C2FD0EC
:1068A000B0A002F0F3FA6420FFF725F8AA20449084
:1068B000012244A91020FEF7CEFAB8A00068439048
:1068C000042243A91120FEF7C6FA6420FFF713F84B
:1068D000B3A002F0DBFA40F6B830FFF70CF800BFC7
:1068E000BFF34F8FB748006800F4E060B649084333
:1068F000001DB4490860BFF34F8F00BF00BFFEE723
:10690000B2A18E48801CFDF78BFCA8B1B1A002F0AB
:10691000BDFA0920ADF80400AA208DF80600552123
:106920008DF8071001218DF808108A1E01A903486F
:106930000068FFF741F800BF00BF4FE700000020EC
:106940000D0A5B4F6E654E45542D4170705D20C839
:10695000CECEF1D2D1C6F4B6AFA3ACBFAACABCB3F7
:10696000F5CABCBBAFD3B2BCFE2E2E2E0D0A000062
:106970005B4F6E654E45542D4170705D20576946E2
:106980006920C1ACBDD3B3B9B5D7CAA7B0DCA3AC3D
:10699000C7EBBCECB2E9BDD3CFDFBACDC2B7D3C928
:1069A000C6F7A3A10D0A00005B4F6E654E45542D3E
:1069B0004170705D205769466920D2D1BECDD0F7B5
:1069C000A3A10D0A000000005B4F6E654E45542DDB
:1069D0004170705D204F6E654E455420B7FECEF17C
:1069E000C6F7C1ACBDD3CAA7B0DCA3A10D0A000095
:1069F0005B4F6E654E45542D4170705D2054435081
:106A000020D2D1C1ACBDD3A3A10D0A005B4F6E65EE
:106A10004E45542D4170705D204D51545420BCF8AA
:106A2000C8A8CAA7B0DCA3A1C7EBBCECB2E920544C
:106A30006F6B656EA3A10D0A000000003D3D3D3D5A
:106A40003D3D3D3D3D3D3D3D3D3D3D3D3D3D3D3D76
:106A50003D3D3D3D3D3D3D3D3D3D3D3D0D0A000043
:106A6000205B4F6E654E45542D4170705D20B5C75B
:106A7000C2BCB3C9B9A6A3A10D0A0000657370001A
:106A800031436376326A6E41323500002473797384
:106A90002F25732F25732F7468696E672F70726F9F
:106AA00070657274792F7365740000000D0A5B4382
:106AB000726173682D5265706F72745D20B7A2CFDA
:106AC000D6CBC0CDF6BCC7C2BCA3A1CBC0BBFA20FD
:106AD00050433A203078253038580D0A0000000025
:106AE00063726173685F6C6F6700000010A3000839
:106AF000247379732F31436376326A6E4132352FB6
:106B00006573702F7468696E672F70726F7065722D
:106B100074792F706F7374005B43726173682D52C8
:106B200065706F72745D20D2C5CAE9D2D1B0B2C8A7
:106B3000ABCFFABBD9A1A30D0A000000880000204A
:106B40001C0000205B4F6E654E45542D52585D2051
:106B5000CAD5B5BDD4C6B6CBD6B8C1EE3A202573DA
:106B60000D0A00000D0A21212120B4A5B7A2D7D417
:106B7000C9B1BFAAB9D820286275673D4F4E29A375
:106B8000A1D7BCB1B8BCC7C2BC20504320B2A2D66A
:106B9000D8C6F4202121210D0A0000000800412C54
:106BA000D2C5CAE9D0B4C8EBCDEAB1CFA3AC33C3E8
:106BB000EBBAF3CFB5CDB3B8B4CEBB2E2E2E0D0AA3
:106BC000000000000CED00E00000FA057570646143
:106BD0007465000020CAB6B1F0B5BDC9FDBCB6B938
:106BE000D8BCFCD7D6A3A1CDB6CEB9D7B4CCACBB5C
:106BF000FA2E2E2E0D0A000010B500BFBF2080F324
:106C00001188BFF34F8FBFF36F8F00BF02F02CFFCF
:106C100018B14FF080500449086000BF002080F395
:106C2000118800BF10BD000004ED00E008B5304839
:106C3000006840F001002E49086000BF2C48006841
:106C400000F002000028F9D000BF2948406840F059
:106C50008000274948600020009002E00098401C16
:106C6000009000985028F9D32148406840F09000E7
:106C70001F4948600020009002E00098401C0090EE
:106C800000985028F9D300BF1948406820F003004D
:106C900017494860084600681649084014490860CA
:106CA0000846406814490840114948600846006891
:106CB000104908400E4908600846006820F480200A
:106CC0000860084640680D49084009494860084680
:106CD000006808490840064908604FF41F008860B2
:106CE00002F0D0F84FF48041480301F071FB08BD79
:106CF00000100240FFFFF6FE0C00FFE8FFFF00F768
:106D000010B5C4B01D491E4802F0C5F998B31C481F
:106D100002F046F904211B4801F037F80421194814
:106D200001F07FF9C0F5807084B2002C13DDB4F55A
:106D3000807F10DC1448006868B1ADF8004022463E
:106D400012490DF10200FDF747FA69460E48006846
:106D5000FEF750FE00BF0D4A04210A4801F02FF94A
:106D60004FF480720421074801F048F904210548D6
:106D700001F024F800BF44B010BD0000040304007B
:106D8000003801400000024000000020AA09002055
:106D900010B52F492F4802F07EF910B12D4802F0AE
:106DA000FFF82D492B4802F076F978B3294802F014
:106DB000F7F8C4B229480088B0F5FF7F07D8274804
:106DC00001880088401C254A1080254844540A2C1C
:106DD00007D03E2C05D07D2C03D020480088FA280F
:106DE00013DB00211E481D4A128881541B4800886D
:106DF0001B49891E08801B48006818B119480068A3
:106E0000FEF7F8FD00201549088000BF164911481B
:106E100002F041F9D0B10F4802F0C2F80F480088E3
:106E2000002813DD00210E480C4A128881540B48BB
:106E300000880B49891E08800A48006818B1094873
:106E40000068FEF7D7FD00200449088010BD00004F
:106E50000005030000440040050305002000002059
:106E6000AC0C00201C0000200403040010B50446F4
:106E70002348006830B940F202210520FEF776FD74
:106E80001F49086040F2117001F05CFF40F202609F
:106E900001F058FF0423032218211A4801F022F9B7
:106EA000082303224821174801F01CF9164802F074
:106EB00081F82146144802F02BF80021124802F014
:106EC00026F90021104802F012F908210E4802F0BC
:106ED00016F904210C4802F002F900220C212620A8
:106EE00001F016FA40F20531074802F0C7F84FF4F6
:106EF0004171054802F0C2F8034802F0ABF810BD3A
:106F00001C000020000801400044004070B5054608
:106F10000E4600240CE000BF0721074802F09FF84E
:106F20000028F9D0295D044802F03FF8601C84B2C3
:106F3000B442F0DB70BD00000044004010B50446D0
:106F40000BE000BF0721074802F089F80028F9D0BC
:106F500014F8011B034802F028F820780028F0D12B
:106F600010BD00000044004000BFFEE710B504461D
:106F70002748006818B9FEF7D3FC2549086040F29D
:106F80000E6001F0DFFE40F2026001F0DBFE4FF424
:106F90000073032218211F4801F0A4F84FF4806306
:106FA000032204211B4801F09DF81B4802F002F85F
:106FB0002146194801F0ACFF0021174802F087F87C
:106FC0000021154802F0A3F80021134802F08FF8C1
:106FD0000821114802F093F804210F4802F07FF8CD
:106FE00040210D4802F02EF84FF4407001F0E6F910
:106FF00000220521252001F08BF94FF4417106484C
:1070000002F03CF8FEF75CF8034802F023F810BDEC
:1070100014000020000801400038014010B5FEF7C0
:10702000C1FAFEF7B7FA0620FEF7CAFAFEF7AAFA87
:10703000FEF7E2FA10BD10B5044600F048F8FFF77D
:10704000EDFFFEF7AFFAFEF7A5FAD820FEF7B8FA83
:107050002104C1F30740FEF7B3FA2104C1F307206E
:10706000FEF7AEFA2104C8B2FEF7AAFAFEF78AFAD2
:10707000FEF7C2FA00F02BF810BD70B506460C46BC
:1070800000F025F8FFF7CAFFFEF78CFAFEF782FA48
:107090000220FEF795FA2102C1F30740FEF790FAAD
:1070A0002102C1F30720FEF78BFA2102C8B2FEF7D6
:1070B00087FA002504E0705DFEF782FA681C85B24D
:1070C000FF2DF8DDFEF75EFAFEF796FA70BD10B5FB
:1070D00015E0FEF767FAFEF75DFA0520FEF770FA95
:1070E000FF20FEF76DFA0446FEF74CFAFEF784FA2D
:1070F00004F0010000B903E00220FEF7FCFBE8E722
:1071000000BF10BD10B50446FEF702FC034800683E
:10711000204302490860FEF7FFFB10BD0C00002071
:10712000FEF718FA16A001F0B1FE002406E0FEF703
:107130000DFA4FF47A70FEF7DEFB641C1E2CF6DBB2
:107140001EA001F0A3FE1AE040F6B830FEF7D3FB14
:1071500027480078012802D1FEF7F8F90FE025480A
:10716000006800F0010028B1FEF7F0F90020214985
:10717000086004E01F4801681FA001F087FEE3E7F4
:107180000D0A5B5744542D5461736B5D20BFB4C32B
:10719000C5B9B7D2D1C6F4B6AFA3A1B8F8D3E8CF7A
:1071A000B5CDB320333020C3EBBFAABBFACEDEB5DA
:1071B000D0CAB1BCE42E2E2E0D0A00000D0A5B577A
:1071C00044542D5461736B5D20BFEDCFDEC6DABD34
:1071D000E1CAF8A3A1BFAACABCBDF8D0D0B6E0C826
:1071E000CECEF1CEDEC7E9B5E3C3FBA3A10D0A0005
:1071F000100000200C0000205B5744542D54617394
:107200006B5D20D6C2C3FCB4EDCEF3A3A1D3D0C82E
:10721000CBCEB4C7A9B5BDA3A1B5B1C7B0B1EAD6AD
:10722000BE3A203078253032580D0A0000B5ADF551
:10723000217D31A001F02AFE4FF4FA70FEF75BFBCE
:1072400039A0FFF77BFEC820FEF755FB37A0FFF7FC
:1072500075FE4FF4FA70FEF74EFB00BF0022694640
:1072600035480068FEF78BFB0028F7D133A001F00A
:107270000DFE4FF47A723BA12DA0FDF763FF18B904
:1072800000200DF5217D00BD37A001F0FFFD40F687
:10729000B8323DA13EA0FDF755FF4FF4FA70FEF75E
:1072A0002AFB00BF00223D4923480068FEF767FB28
:1072B0000028F7D13AA001F0E9FD4FF47A7229A134
:1072C00040A0FDF73FFF08B90020DAE741A142A046
:1072D00001F0DCFD4AA33FA24CA181A800F0C2F856
:1072E00043F698224FA181A8FDF72CFF08B9002092
:1072F000C7E70120C5E700005B4F6E654E45542D82
:107300004170705D20D5FDD4DABBBDD0D1C4A3BF20
:10731000E9A3ACC7E5C0EDB2D0D3E0D7B4CCAC2E76
:107320002E2E0D0A000000002B2B2B000D0A0D0A3B
:1073300041540D0A000000001C0000205B4F6E65E8
:107340004E45542D4170705D20D5FDD4DABCECB2B1
:10735000E9204553503832363620D7B4CCAC2E2EE7
:107360002E0D0A004F4B00005B4F6E654E45542DAD
:107370004170705D20D5FDD4DAB8B4CEBBC4A3BFD4
:10738000E92E2E2E0D0A000072656164790000005E
:1073900041542B5253540D0A000000008800002075
:1073A0005B4F6E654E45542D4170705D20C9E8D627
:1073B000C3CEAA2053544120C4A3CABD2E2E2E0DE5
:1073C0000A00000041542B43574D4F44453D310DB9
:1073D0000A0000006A6B00005B4F6E654E45542D3D
:1073E0004170705D20D5FDD4DAC1ACBDD3205769A2
:1073F00046693A202573202E2E2E0D0A000000002B
:1074000031323334353637380000000041542B43D5
:10741000574A41503D222573222C222573220D0A02
:10742000000000005749464920474F54204950006A
:107430000FB47CB50C0009AD01D0611E00E0002145
:10744000CDE90001064B6A462946089800F00AF982
:10745000002C02D0009A002111707CBC5DF814FB56
:107460006B7D00080FB4084B10B504A902AA03985D
:1074700000F0F8F8044602A9002000F081FC204644
:1074800010BC5DF814FB0000817D00087CB50C0089
:107490001D461646014601D0601E00E00020CDE9E1
:1074A0000010064B6A462946304600F0DBF8002CF7
:1074B00002D0009A002111707CBD00006B7D000895
:1074C00002E008C8121F08C1002AFAD170477047AD
:1074D000002001E001C1121F002AFBD1704700000B
:1074E0002DE9FF5F82B00021DDE90430020DDDF8F7
:1074F00040B0034318D044F61050A2F2FF3242438A
:107500001514119801281FD0A5EB0B00401C5FEA51
:10751000000A4FF000064E4FDFF83891B046504653
:1075200015D5CAF1000413E0119801244AA30128DB
:1075300001D16FEA0B010298119AC0E90031C0E94C
:10754000024206B0BDE8F09FCBF10000DFE7044641
:107550000021404A491842EB0450CDE9001012E0E6
:10756000E00707D032463B4640464946FDF7D5F88E
:107570008046894632463B4610461946FDF7CDF80F
:1075800006460F466410002CEAD1DDE90401DDE96E
:107590000023BAF1000F06DAFDF7BFF842464B466A
:1075A000FDF7BBF805E0FDF72AF942464B46FDF72B
:1075B00026F904460E460022284BFDF7A7F903D80A
:1075C0004FF0FF30014607E00022254B20463146B0
:1075D000FCF7FCFFFDF782F9102409E0002C0ADB20
:1075E0000A220023FCF77EFF039B30321A55641EEB
:1075F00050EA0102F2D1641C039AC4F1110314444D
:10760000119A012A03D0012208430DD10AE0084350
:1076100004D000204FF0110B119072E7A3EB0B0583
:107620006D1E0DE05B4504DD4FF0000205F1010524
:1076300004E003DA4FF00002A5F10105002AECD0C6
:1076400002981199C0E90231C0E9004579E70000CC
:10765000000014400000F03F300000000000F04344
:107660000000E03F2DE9FF4F95B09A468846064658
:107670000025EEE1252877D100242746F94A01218B
:10768000039400E0044316F8013F203B01FA03F0A5
:107690001042F7D130782A2811D06FF02F033078BC
:1076A000A0F13002092A16D8039A44F0020402EB32
:1076B000820203EB42021044761C0390EFE758F875
:1076C000042B0392002A03DA504244F4005403903E
:1076D00044F00204761C30782E2816D116F8010FDB
:1076E00044F004042A280DD06FF02F023078A0F166
:1076F0003003092B09D807EB870302EB4303C718B4
:10770000761CF3E758F8047B761C30786C280FD091
:1077100006DC4C2817D068280DD06A2814D104E064
:10772000742810D07A280FD10DE044F400140AE038
:1077300044F4801401E044F440147278824202D18F
:1077400004F58014761C761C307866280BD013DC88
:10775000582877D009DC002875D04528F6D046286F
:10776000F4D047281AD193E118E0632835D0642873
:1077700079D0652812D18BE1702873D008DC672896
:10778000F1D069286FD06E280DD06F2806D1ACE0FB
:1077900073282CD0752874D0782853D05246179966
:1077A00090476D1C54E1C4F30250022809D003280D
:1077B0000DD0D8F8001004280DD00D6008F1040891
:1077C00046E1D8F80010EA17C1E90052F6E7D8F808
:1077D00000100D80F2E70D70F0E718F8041B8DF82B
:1077E000001000208DF80100EB46012003E058F85E
:1077F00004BB4FF0FF3061074FF0000102D40DE0F1
:1078000009F101018946B9420FDA8145F8DB1BF81D
:1078100009100029F4D108E009F1010189468142EB
:10782000FADB1BF809100029F6D103985346A0EBA8
:10783000090721463846179A00F080FA284400EBE1
:10784000090507E044E008E10DE01BF8010B524692
:1078500017999047B9F10109F7D2534621463846A6
:10786000179AF2E039E00A21C4F302524FF0000BFC
:107870000091022A06D058F8040BC117032A09D038
:107880000AE023E008F1070020F00702F2E8020115
:10789000904605E000B2C117042A01D140B2C117D9
:1078A000002906DA0A460021404261EB02012D223E
:1078B00002E0220504D52B228DF80420012203E0EA
:1078C000E20701D02022F7E7914657E00A2100E0C5
:1078D00010214FF0000B00910BE010214FF0000B36
:1078E00044F004040827009103E008204FF0000B47
:1078F0000090C4F30252022A05D058F8040B00216C
:10790000032A08D008E008F1070020F00702F2E897
:107910000201904603E080B2042A00D1C0B24FF0C9
:10792000000922072AD53278702A07D0DDF800C076
:107930008CF0100C5CEA0B0C05D00EE040228DF8A8
:107940000420012208E050EA010306D030238DF81C
:1079500004308DF8052002229146009B83F0080335
:1079600053EA0B030AD150EA010201D1620705D59F
:1079700030228DF804204FF001097F1E3278582AFA
:1079800004D039A20C920CAA02920BE03BA2F9E7B8
:107990005B46009AFCF7A6FD0C9B9B5C029A521E6C
:1079A0000292137050EA0102F2D1029804A9081A57
:1079B00000F1200B600702D524F4803400E0012799
:1079C0005F4502DDA7EB0B0000E0002000EB0B01A0
:1079D000009003984944401A0390E00306D45346AC
:1079E0002146179A039800F0A9F90544002706E0FC
:1079F00001A85246C05D179990476D1C7F1C4F45EA
:107A0000F6DBE0030CD553462146179A039800F0A5
:107A100095F9054404E030205246179990476D1CB3
:107A20000099481E00900029F5DC08E002980299B0
:107A300052460078491C0291179990476D1CBBF182
:107A40000001ABF1010BF1DC5BE100F065F90544ED
:107A5000761C307800287FF40DAE19B02846BDE8BA
:107A6000F08F0000092801003031323334353637C9
:107A7000383961626364656600000000303132337A
:107A8000343536373839414243444546000000001A
:107A9000600700D4062708F1070020F00700F0E88F
:107AA0000223804603F0004C5FEA0C0001D097A04F
:107AB00009E0200501D596A005E0E00701D095A0DA
:107AC00001E0AFF24C001390307823F000436528BA
:107AD0000CD006DC452809D046281DD047287FD188
:107AE0003BE0662818D067287AD136E00021112FB4
:107AF00001DB112000E0781CCDE9000104A90CA8ED
:107B0000FFF7EEFCDDE90D010C9A4FF0000B07F1D9
:107B10000109109200914EE04FF000400097CDE92E
:107B2000011004A90CA8FFF7DBFCDDE90D020C9B9A
:107B30000F994FF0000B91461093009211B9791CE8
:107B400000EB0109B7EB090003D4C0F1FF3B07F1DB
:107B50000109A9EB0700019042E0012F00DA01279B
:107B60000021112F01DD112000E03846CDE9000190
:107B700004A90CA8FFF7B4FCDDE90D010C9A0091F3
:107B80004FF0000BB946109221070FD4009A4A45D6
:107B900003DA914601E0A9F10109B9F1010F05DD10
:107BA000109AA9F10101515C3029F4D0B84202DAEF
:107BB00010F1040F03DA0121CDE9011010E00028D3
:107BC00003DC8344A9EB000102E0411C494500DDD0
:107BD0008946A0EB0B00401C01904FF00040029042
:107BE000200705D40198484502DB4FF0FF30019093
:107BF00000208DF84B0002980DF14B07B0F1004FBB
:107C000025D002200C902B200D90029800280CDA31
:107C1000404202902D200D9007E00A210298FCF7C7
:107C20004BFC3031029007F8011D0C99481E0C9056
:107C30000029F2DC02980028EFD1791E0D98087017
:107C4000307800F0200040F0450007F8020D11A840
:107C5000C01BC01D02901398007800B1012000EBFA
:107C60000901019801EBE071029801440398401A60
:107C7000401E0390E00306D453462146179A03980A
:107C800000F05CF805441398007818B15246179933
:107C900090476D1CE00323D553462146179A03985D
:107CA00000F04CF805441BE0BBF1000F07DB009827
:107CB000584504DD1098179910F80B0001E017994A
:107CC00030205246904701980BF1010B401E05F100
:107CD0000105019004D12E205246179990476D1C42
:107CE000B9F10001A9F10109DEDC05E017F8010B8B
:107CF0005246179990476D1C0299481E0290002920
:107D0000F4DC53462146179A03989EE62D000000A6
:107D10002B000000200000002DE9F0410446002562
:107D20001E461746880404D405E039462020B04793
:107D30006D1C641EF9D52846BDE8F0812DE9F0419F
:107D4000044600251E469046C80301D5302700E0B2
:107D50002027880404D505E041463846B0476D1C0D
:107D6000641EF9D52846BDE8F0814A68002A06D08D
:107D70000A68531C0B6010704868401E48607047CA
:107D80000A68531C0B601070704770B505460C46AE
:107D90002146284600F026F908B900BFFEE704EBAB
:107DA0008400810005F10800405820F0010104EB37
:107DB0008400820005F10800815070BD70B5054651
:107DC0000C462146284600F00DF908B900BFFEE731
:107DD00004EB8400810005F10800405840F00101E7
:107DE00004EB8400820005F10800815070BD70B57D
:107DF00005460C462146284600F0F4F808B900BFB5
:107E0000FEE704EB8400810005F10800405820F0F3
:107E1000200104EB8400820005F10800815070BD50
:107E200070B504460D462946204600F0DBF808B937
:107E300000BFFEE705EB8500810004F10800405813
:107E400020F0010105EB8500820004F1080081505B
:107E5000002105EB8500820004F10800815005EB4C
:107E60008500820004F10C00815005EB8500820042
:107E700004F11000815005EB8500820004F114002C
:107E800081506068AA000F2191400843606070BD76
:107E90002DE9F04104460D4616462946204600F0DD
:107EA000A1F808B900BFFEE705EB8500820004F1E8
:107EB00010003168815005EB8500820004F1140048
:107EC000B1688150308A81B205EB8500820004F1EF
:107ED0000C00815005EB8500810004F10800475833
:107EE00027F47C57F16870680843716908430743B9
:107EF00005EB8500810004F108004750307E012821
:107F00000ED105EB8500810004F10800405840F0D7
:107F1000400105EB8500820004F1080081500DE06E
:107F200005EB8500810004F10800405820F0400175
:107F300005EB8500820004F108008150707E012865
:107F40000ED105EB8500810004F10800405840F097
:107F5000800105EB8500820004F1080081500DE0EE
:107F600005EB8500810004F10800405820F08001F5
:107F700005EB8500820004F108008150B07E70B9E5
:107F800005EB8500810004F10800405820F0100145
:107F900005EB8500820004F1080081500DE005EB3F
:107FA0008500810004F10800405840F0100105EB05
:107FB0008500820004F108008150BDE8F08170B5B1
:107FC00006460C4615462146304600F00BF808B927
:107FD00000BFFEE704EB8400810006F11400455069
:107FE00070BD000002460120034B9A4202D10429D1
:107FF00000DD0020704700000004024070B5064616
:108000000C46154621463046FFF7ECFF08B900BF85
:10801000FEE7A9B204EB8400820006F10C00815057
:1080200070BD70B505460C4621462846FFF7DAFFBD
:1080300008B900BFFEE704EB8400810005F10C00E5
:10804000405870BD30B502460B46164C002145F233
:108050005550154D286000BF1348C06800F001015D
:10806000601E041E01D00029F6D109B1002030BDE8
:108070000D4843600B4C00BF0B48C06800F0020184
:10808000601E041E01D00029F6D109B10020EEE7E0
:10809000C2F30B00044DA8604AF6AA202860012014
:1080A000E5E70000FFFF0F00003000404AF6AA207D
:1080B0000149086070470000003000404CF6CC4099
:1080C00001490860704700000030004045F25550FB
:1080D000014908607047000000300040416170476E
:1080E00001617047F0B5044616460025002201F0F4
:1080F0000F0501F0100707B1354300201EE00127EE
:1081000087401F40C7B122684FEA800C0F2707FA4B
:108110000CF7BA43870005FA07F73A43282904D138
:10812000012787401F40676105E0482903D10127E7
:1081300087401F4027612260471CB8B20828DED361
:10814000082022E0012787401F40E7B16268A0F1C4
:1081500008074FEA870C0F2707FA0CF7BA43A0F17C
:108160000807BF0005FA07F73A43282904D1012779
:1081700087401F40676105E0482903D101278740F8
:108180001F4027616260471CB8B21028DAD3F0BDE7
:1081900002469068084008B1012070470020FCE7C3
:1081A0001CB54FF48041480300F012F94FF4E13060
:1081B000FEF7DCFE4FF4E130FEF758FEFCF710FE50
:1081C00019A000F063FE22A000F060FE23A000F0E2
:1081D0005DFE2B48032100234FF42072CDE90010EF
:1081E00028A12B48FDF72AFC044600200521034660
:1081F0008022CDE9001027A12948FDF71FFC214668
:1082000028A000F043FE012C04D0304800F03EFED0
:1082100000BFFEE72EA000F039FEFDF70BFC35A0F5
:1082200000F034FE00BFFEE70D0A3D3D3D3D3D3D03
:108230003D3D3D3D3D3D3D3D3D3D3D3D3D3D3D3D6E
:108240003D3D3D3D3D3D3D3D3D3D3D0D0A00000078
:108250002056332E30A3A10D0A0000003D3D3D3DC8
:108260003D3D3D3D3D3D3D3D3D3D3D3D3D3D3D3D3E
:108270003D3D3D3D3D3D3D3D3D3D3D3D3D0D0A00CE
:10828000040000204F6E654E45545F5461736B00CF
:10829000CD6600085744545F5461736B00000000C2
:1082A000217100085B53797374656D5D204F6E65B5
:1082B0004E45545461736B2063726561746520721E
:1082C0006574203D2025640D0A00000034A00008DC
:1082D0005B53797374656D5D20D5FDD4DAC6F4B651
:1082E000AF2052544F5320B5F7B6C8C6F72E2E2EE6
:1082F0000D0A00005B466174616C5D20B5F7B6C87D
:10830000C6F7C6F4B6AFCAA7B0DCA3A10D0A000039
:108310002DE9F04103460D46164600240027A046ED
:108320002448006800F4E060B0F5A06F15D006DCCA
:10833000B0F5407F18D0B0F5806F19D110E0B0F5DE
:10834000C06F06D0B0F5E06F12D100274FF00408DF
:1083500015E001274FF0030811E00227B8460EE0B0
:1083600003274FF001080AE004274FF0000806E059
:108370004FF4A06000F022F80227B84600BF00BF0B
:10838000C7F1040005FA00F4C8F104010F20C84049
:108390003040044324010848C45403F01F01012065
:1083A00088405911890001F1E021C1F80001BDE8C0
:1083B000F08100000CED00E000E400E00249014320
:1083C000024A1160704700000000FA050CED00E061
:1083D000034A0A400243034B1A60BFF34F8F7047B2
:1083E00080FFFF1F08ED00E02DE9F04105460E4635
:1083F0002648076826480068001D00F090FE50B926
:108400002348006890F82C10012088402149096811
:10841000814320480160681CD8B9D6B11E4948681C
:108420001B49096888601A4982680968CA60184946
:108430000968091D8268516015490968091D816034
:10844000154A134909684A6111460968491C1160B7
:108450001AE07C190E4800684460BC4207D20C4800
:108460000168091D0D48006800F084FE0CE0084812
:108470000168091D0A48006800F07CFE0948006890
:10848000844201D207480460BDE8F0813800002032
:10849000240000203C000020600F00202C00002061
:1084A000280000205400002010B5044600F07CFE97
:1084B0002F480068401C2E4908602E48006840B9CB
:1084C0002C4804600846006801280DD100F09CF992
:1084D0000AE02948006838B926480068C06AE16A9D
:1084E000884201D82348046024480068401C23497E
:1084F000086094F82C10012088402149096808433D
:108500001F490860E16A01EB81011E4A02EB81010B
:108510004868A0608268E260211D826851608160C5
:10852000E16A01EB8101174A02EB81026261E16AB3
:1085300001EB8101134A52F82110491CE26A02EB57
:108540008202104B43F8221000F040FE0A480068F7
:1085500068B108480068C06AE16A884207D24FF0F3
:10856000805009490860BFF34F8FBFF36F8F10BD74
:108570003400002024000020400000205000002093
:108580003C000020AC0E002004ED00E010B516E029
:1085900000F00AFE0C48C068C468201D00F0BFFD52
:1085A0000A480068401E0949086009480068401EE2
:1085B0000749086000F00AFE204600F05FF8044812
:1085C00000680028E4D110BD4C0F002034000020CA
:1085D0003000002070B504460D46206C70B1216C4F
:1085E000E0680144E160D4E90210884201D32168C7
:1085F000E1602846226CE168FBF7EEFD70BD2DE9D5
:10860000F04104460F4615464FF00008A66B206C5B
:1086100048B9206800282CD1A06801F0EDFA804606
:108620000020A06025E07DB93946226C6068FBF728
:10863000D3FD216C606808446060D4E90101884280
:1086400017D32068606014E03946226CE068FBF7BD
:10865000C3FD216CE068411AE1602168E06888424E
:1086600003D2216CA068411AE160022D01D106B14C
:10867000761E701CA0634046BDE8F08110B504462C
:10868000206B00F0B3FD204600F0B0FD10BD0146A8
:108690004A6A22B10A6B1268C2F1050000E00020AC
:1086A0007047000030B54FF44053154800F0070400
:1086B0002CB1C01D20F00700114C041B1B1B0246EF
:1086C000104C226000240F4D6C60D018083820F048
:1086D00007000D4C206000240B4D2D686C600A4D86
:1086E0002D682C601146441A4C60074C24680C60BD
:1086F000064D4C682C60064D4C682C6030BD000067
:10870000740F0020640000206C0000207400002022
:108710007000002000BFFFF739FF064800680128FD
:10872000F9D94FF0805004490860BFF34F8FBFF371
:108730006F8FF0E7AC0E002004ED00E010B50446AA
:1087400054B10020A06020600021E16000231A469F
:108750001946204600F032FF10BD2DE9F0410646D3
:108760000D4617469846069C0DB9246000E0276028
:10877000E66325640121204600F0D0FEBDE8F081CB
:108780002DE9F05F81460E4690469A460A9F0C9C62
:108790004FEA8801A522206BFBF730FDA8F101000C
:1087A000216B01EB800B2BF0070B7EB1002507E05E
:1087B000715D04F134004155705D00B902E06D1C3B
:1087C000102DF5D300BF002143200155052F00D304
:1087D0000427E7626764201D00F0C9FC04F118005B
:1087E00000F0C5FC2461C7F10500A0616462524637
:1087F0004946584600F070F920600B9808B10B9874
:108800000460BDE8F09F000010B5002407E004EB11
:1088100084010F4A02EB810000F09CFC641C052CD3
:10882000F5D30C4800F096FC0B4800F093FC0B4885
:1088300000F090FC0A4800F08DFC0A4800F08AFC29
:1088400004480949086004480849086010BD000050
:10885000AC0E0020100F0020240F0020380F002045
:108860004C0F0020600F0020280000202C0000206A
:1088700010B50146164800E0006803688B42FBD340
:108880000246436813448B4204D143684C68234436
:10889000436001460A464B6813440468A34211D161
:1088A0000C4C03682468A34208D04B6804686468D1
:1088B00023444B6003681B680B6005E0054B1B6895
:1088C0000B6001E003680B60884200D0016010BDBE
:1088D000640000206C00002070B5054600F064FCC8
:1088E000A86B08B9012400E0002400F06FFC2046CA
:1088F00070BD70B5054600F057FCA86BE96B884267
:1089000001D1012400E0002400F060FC204670BD8D
:1089100009480068006808B9012000E0002020B183
:108920004FF0FF300549086005E003480068C06863
:1089300000680249086070472800002054000020A9
:1089400000BFBF2080F31188BFF34F8FBFF36F8F3D
:1089500000BF00BFFEE770B5044600F025FC94F9A7
:10896000455010E0606A08B9012000E0002038B9E5
:1089700004F1240001F00CFA18B100F08FFC00E0C3
:1089800003E0681E45B2002DECDC00BFFF2084F838
:10899000450000F01BFC00F007FC94F9445010E087
:1089A000206908B9012000E0002048B904F1100056
:1089B00001F0EEF908B100F071FC681E45B200E06C
:1089C00001E0002DECDC00BFFF2084F8440000F043
:1089D000FDFB70BD2DE9F04705464FF0000900F0A2
:1089E00013FD3048006808B9FFF75CFE75B105F06B
:1089F0000700C0F11008C8F1FF30A84201D20120E1
:108A000000E0002008B9454400E00025012000EB0B
:108A1000E570002841D0002D3FD0234800688542F2
:108A20003BD8224E3046046801E026462468606840
:108A3000A84202D220680028F7D11A480068844270
:108A40002BD0306800F10809206830606068401B56
:108A5000102807D967196068401B78606560384640
:108A6000FFF706FF104960680968081A0E49086098
:108A7000084600680E490968884203D20A4800681F
:108A80000B490860606840F0004060600020206092
:108A900008480068401C0749086001F0FDF9484695
:108AA000BDE8F0876C00002070000020640000200A
:108AB00074000020780000200648006830B10549A5
:108AC000096801F14800896C491C0160014800688F
:108AD0007047000024000020001F4FF080730360E7
:108AE000001F21F001030360001F034B03601438D3
:108AF0000260203870470000418900082DE9F04FDE
:108B00008BB00746002009903EA090E8004CC0685A
:108B1000CDE905BECDF810A007900FF2EC0ADAE916
:108B2000000ACDE9020A0FF2E00ADAE9000ACDE90B
:108B3000000A38484068C0F381000A900A9820B1C2
:108B4000012804D0022829D103E0334928E0324922
:108B500026E03048406800F48038B8F5803F09D1FD
:108B60002D4C2C48406800F40039B9F5003F02D183
:108B7000641000E0294C27484068C0F38342254830
:108B8000406800F0006008B142F010020F2A01D2E4
:108B9000921C00E0521C04FB02F101E01E4900BFE0
:108BA00000BF1C484068C0F3031504A8465D21FAC5
:108BB00006F318484068C0F3022502A8465D23FA70
:108BC00006FC14484068C0F3C2251DF8056023FA6E
:108BD00006F0089037B1012F06D0022F06D0032FE0
:108BE0000AD106E0099108E0099306E0CDF824C017
:108BF00003E00898099000E000BF00BF09980BB09F
:108C0000BDE8F08F00000000000000000102030436
:108C1000060708090010024000127A0000093D0012
:108C20000146074A02EB9110006801F01F03012280
:108C30009A40104008B1012070470020FCE7000076
:108C400000100240064A02EB9011096800F01F0371
:108C500001229A401143024B03EB901211607047BE
:108C600000100240F0B50646002400270025182E0B
:108C700051D003DC6EB3102E5DD106E0B6F5006F67
:108C800014D0B6F5106F56D133E004E01120FFF791
:108C9000C7FF0546641C1DB94FF6FF708442F5D12D
:108CA0001120FFF7BDFF00B1012745E005E040F6C8
:108CB0000100FFF7B5FF0546641C1DB96FF07C404D
:108CC0008442F4D140F60100FFF7AAFF00B101276A
:108CD00032E004E00120FFF7A3FF0546641C15B94C
:108CE000B4F5A06FF6D10120FFF79AFF00B101277C
:108CF00022E005E040F60110FFF792FF0546641CF4
:108D000015B90F488442F5D140F60110FFF788FFEE
:108D100000B1012710E004E01920FFF781FF0546AC
:108D2000641C15B906488442F6D11920FFF778FF74
:108D300000B1012700E000BF00BF3846F0BD0000D1
:108D4000FFFF0F00064A02EB9011096800F01F03B5
:108D500001229A401143024B03EB901211607047BD
:108D600000100240064A02EB9011096800F01F0350
:108D700001229A409143024B03EB9012116070471D
:108D800000100240064A02EB9011096800F01F0330
:108D900001229A401143024B03EB9012116070477D
:108DA000001002400146C86880B27047C160704739
:108DB00002469068084008B1012070470020FCE797
:108DC000002000212C4A126842F480322A4B1A609B
:108DD00000BF401C284A126802F4003119B94FF64E
:108DE000FF729042F5D1244A126802F400320AB9A7
:108DF00000BFFEE7204A52681F4B5A601A4652686D
:108E00005A601A46526842F480625A601A465268A2
:108E100022F440325A601A46526842F440325A6094
:108E20001A465268154B1A40134B5A601A4652683C
:108E3000134B1A43104B5A601A46126842F0807264
:108E40001A6000BF0C4A126802F00072002AF9D0C2
:108E5000094A526822F00302074B5A601A465268C8
:108E600042F002025A6000BF034A526802F00C024C
:108E7000082AF9D17047000000100240FFFFC3F735
:108E80000000280810B5FFF79BFF10BD0FB438B5E0
:108E90001C48006828B14FF0FF311A480068FCF701
:108EA0004EFD05A800904FF400711748009B049AEE
:108EB000FEF7ECFA0020009000240DE000BF07212F
:108EC000124800F0CCF80128F9D10F48015D0F4895
:108ED00000F06BF8601C84B20B48FBF7B3F9A042BA
:108EE000ECD800BF0621094800F0B9F80128F9D1F3
:108EF0000448006818B103480068FCF716FD38BC48
:108F00005DF814FB14000020AA0A0020003801407C
:108F10002DE9F04704460D460027B846B94600261D
:108F20001D49601A8C421CD006DC1C48204470B1DC
:108F3000B0F5806F1FD10FE0B0F5806F16D0B0F59F
:108F40006C4F18D10320FFF7D9FD074614E002202B
:108F5000FFF7D4FD07460FE00220FFF7CFFD0746DD
:108F60000AE00220FFF7CAFD074605E00220FFF7EE
:108F7000C5FD074600E000BF00BF07EB5500B0FB92
:108F8000F5F64FF6F07006EA000806F00F0948EA19
:108F90000900A060BDE8F087004C004000BCFFBFA6
:108FA00001464868C0F308007047C1F308024260F8
:108FB0007047000010B504462049601A8C4228D042
:108FC00006DC1F48204490B1B0F5806F33D117E024
:108FD000B0F5806F26D0B0F56C4F2CD140F20E303A
:108FE000FFF7D0FE40F20E30FFF7BCFE24E040F267
:108FF0001140FFF7C7FE40F21140FFF7B3FE1BE040
:1090000040F21240FFF7BEFE40F21240FFF7AAFE08
:1090100012E040F21340FFF7B5FE40F21340FFF7B5
:10902000A1FE09E040F21440FFF7ACFE40F214400C
:10903000FFF798FE00E000BF00BF10BD004C0040ED
:1090400000BCFFBF0A460021416921F040011143E5
:1090500041617047C16841F40051C160704710B56B
:10906000024602EB9110006801F01F040123A340A7
:10907000184008B1012010BD0020FCE710B5C1F375
:109080008912825801F01F040123A3401A43C1F33F
:109090008913C25010BD70B5024600230024C1F3ED
:1090A0008910105801F01F060125B54000EA05039C
:1090B00002EB91500068C1F304460125B54000EA77
:1090C000050414B10BB1012070BD0020FCE7C2689B
:1090D00022F4C062C260C2680A43C26070470A4696
:1090E0000021C16821F004011143C1607047026989
:1090F00022F44052026102690A43026170470A4643
:109100000021C16821F008011143C1607047C268A5
:1091100022F48052C260C2680A43C26070470146AE
:109120000A69D1E901309860D1E9010358605068BB
:10913000884201D188685060002008611068401E94
:109140001060106870470000014800687047000018
:109150003400002000F1080141604FF0FF318160D0
:1091600000F10801C1600161002101607047002128
:109170000161704710B502460B685C1C0CB91069A0
:1091800007E002F1080000E04068446824689C425F
:10919000FAD944684C604C68A160886041600A61FB
:1091A0001468641C146010BD00BFBF2080F31188D8
:1091B000BFF34F8FBFF36F8F00BF03480068401CA1
:1091C00001490860704700008000002006480068E0
:1091D000401E054908600846006820B9002080F359
:1091E000118800BF00BF70478000002070B50646A0
:1091F0003546E6B1083D2C466068C00FB8B120681E
:10920000A8B9606820F00040606000F0FDF80849EF
:10921000606809680844064908602046FFF728FB93
:1092200004480068401C0349086000F035FE70BD2A
:10923000700000207C00002000204FF0E021086139
:10924000886102484861072008617047DFA5010076
:1092500070B50446002544B100F0D6F80021204640
:10926000FFF7C2F800F018FE05463DB94FF08050F8
:1092700003490860BFF34F8FBFF36F8F70BD0000CD
:1092800004ED00E003490968016003490968416091
:10929000704700004C0000203800002001200149E8
:1092A000086070474800002070B505460C46054828
:1092B000016818312846FFF75DFF01212046FFF7BE
:1092C00093F870BD240000202DE9F04706460F46B4
:1092D00034464FF00109002E5AD0606CB84201D2DA
:1092E0003D4600E0656CE06AA84251D0A06C0128C0
:1092F0004ED1D4F82C80E562A06900F0004010B98E
:10930000C5F10500A06108EB8801224A02EB81014A
:109310006069884201D1012000E00020C0B3201D17
:10932000FFF7FDFE40B994F82C10012088401A493F
:10933000096881431848016094F82C100120884086
:1093400015490968084314490860E16A01EB810185
:10935000104A02EB81014868A0608268E260211D2A
:10936000826851608160E16A01EB8101094A02EB88
:1093700081026261E16A01EB8101064A52F8211023
:10938000491CE26A02EB8202024B43F8221000BF42
:10939000BDE8F087AC0E00203C0000201CB5124850
:1093A00000210B468022CDE9001010A1114800F0E9
:1093B00027FB0446012C14D100BFBF2080F3118885
:1093C000BFF34F8FBFF36F8F00BF4FF0FF300A49DD
:1093D000086001200949086000200949086000F080
:1093E0004BF8084800681CBD5800002049444C4513
:1093F00000000000158700085400002040000020F5
:10940000380000205C00002002480068401C014930
:1094100008607047600000201248006818B1012001
:10942000114908601DE000200F4908600F480068DE
:10943000B0FA80F0C0F11F0101EB81020C4B03EB8D
:10944000820042685268426000F108024368934219
:1094500002D14268526842604268D268054B1A6085
:1094600000BF704760000020480000203C00002042
:10947000AC0E00202400002010B50A48006840F41B
:109480007F00084908600846006840F07F40086097
:10949000FFF7D2FE002004490860FAF751FE0020D1
:1094A00010BD000020ED00E0800000202DE9F0411B
:1094B00004460126002722460021012000F007F87B
:1094C00005462846FFF73AF92846BDE8F0812DE920
:1094D000F84304460E4617460025DCB1681EB0FB73
:1094E000F4F0B04216D304FB06F010F1490F11D886
:1094F00004FB06F909F14800FFF76CFA05464DB187
:10950000A84608F148083B464246314620460095A9
:10951000FFF723F92846BDE8F88300002DE9F04164
:1095200005460E4601272C46002C41D0E06B002852
:109530003ED0B91EE06BB1FBF0F0216C884237D30E
:10954000FFF732FED4E90F12206801FB0200A06091
:109550000020A06320686060E06B401E226C2168E0
:1095600000FB0211E160FF2084F8440084F845000C
:109570009EB9206908B9012000E00020A8B904F1D3
:10958000100000F005FC80B14FF080500A490860DF
:10959000BFF34F8FBFF36F8F07E004F11000FFF7A9
:1095A000D9FD04F12400FFF7D5FDFFF70FFE00E021
:1095B00000273846BDE8F08104ED00E02DE9FF43C7
:1095C00083B0074688461D464FF000093C4600BF61
:1095D000FFF7EAFDA06BE16B884201D3022D28D191
:1095E0002A4641462046FFF70AF80646606A08B94F
:1095F000012000E0002068B904F1240000F0C8FB5D
:1096000088B14FF0805032490860BFF34F8FBFF3ED
:109610006F8F08E03EB14FF080502D490860BFF3D6
:109620004F8FBFF36F8FFFF7D1FD012007B0BDE86B
:10963000F083059818B9FFF7C9FD0020F6E7B9F1E6
:10964000000F04D101A8FFF71DFE4FF00109FFF73D
:10965000BDFDFFF7D9FEFFF7A7FD94F94400401CBC
:1096600010B9002084F8440094F94500401C10B95A
:10967000002084F84500FFF7A9FD05A901A800F026
:109680008FF9F0B92046FFF734F9A0B104F11000CA
:109690000599FFF709FE2046FFF75DF900F0FCFB96
:1096A000002895D14FF0805009490860BFF34F8FD3
:1096B000BFF36F8F8CE72046FFF74DF900F0ECFB0E
:1096C00086E72046FFF747F900F0E6FB0020ADE70C
:1096D00004ED00E02DE9FF4F81B0054616461F4618
:1096E0002C4600BFBF21EFF3118081F31188BFF337
:1096F0004F8FBFF36F8F00BF8146A06BE16B884235
:1097000001D3022F28D194F945A0A06B00903A46CE
:1097100020460299FEF773FF0AF1010070B9606AF2
:1097200008B9012000E0002038B904F1240000F05D
:109730002FFB10B10EB1012030600AE0FFF704FDED
:109740008346DA4504D20AF1010040B284F84500AC
:1097500000BF4FF0010801E04FF0000800BF89F39F
:10976000118800BF404605B0BDE8F08F2DE9F741F4
:1097700083B005460F464FF000082C4600BFFFF7A8
:1097800013FDA66BF6B139462046FEF723FF701E87
:10979000A063206908B9012000E0002060B904F14D
:1097A000100000F0F5FA38B14FF080502F490860F2
:1097B000BFF34F8FBFF36F8FFFF708FD012006B097
:1097C000BDE8F081059818B9FFF700FD0020F6E725
:1097D000B8F1000F04D101A8FFF754FD4FF00108C4
:1097E000FFF7F4FCFFF710FEFFF7DEFC94F94400EE
:1097F000401C10B9002084F8440094F94500401C36
:1098000010B9002084F84500FFF7E0FC05A901A885
:1098100000F0C6F8F0B92046FFF75EF8A0B104F1F9
:1098200024000599FFF740FD2046FFF794F800F06B
:1098300033FB0028A3D14FF080500C490860BFF3E0
:109840004F8FBFF36F8F9AE72046FFF784F800F041
:1098500023FB94E72046FFF77EF800F01DFB20462F
:10986000FFF73AF800288AD00020A8E704ED00E0CE
:109870002DE9F34182B0054600272C46B84600BFCB
:10988000FFF792FCA66BFEB1701EA063206810B9B2
:10989000FFF712F9A060206908B9012000E000205C
:1098A00060B904F1100000F073FA38B14FF0805045
:1098B0003A490860BFF34F8FBFF36F8FFFF786FC05
:1098C000012004B0BDE8F081039818B9FFF77EFCD1
:1098D0000020F6E71FB96846FFF7D4FC0127FFF721
:1098E00075FCFFF791FDFFF75FFC94F94400401C05
:1098F00010B9002084F8440094F94500401C10B9C8
:10990000002084F84500FFF761FC03A9684600F0D9
:1099100047F840BB2046FEF7DFFFF0B1206838B9BA
:10992000FFF742FCA06800F0BDF98046FFF74EFC4F
:1099300004F124000399FFF7B7FC2046FFF70BF86A
:1099400000F0AAFA00289BD14FF08050134908601C
:10995000BFF34F8FBFF36F8F92E72046FEF7FBFFF9
:1099600000F09AFA8CE72046FEF7F5FF00F094FA33
:109970002046FEF7B1FF002882D0B8F1000F0BD0CF
:10998000FFF712FC2046FEF782FE06463146A0682D
:10999000FFF79AFCFFF71AFC002092E704ED00E0C5
:1099A00070B506460C46FFF7FFFB13480268706867
:1099B000131A2068401C08B9002519E00F493068C7
:1099C0000968884206D07068904203D801250020BB
:1099D00020600DE02068984207D92068C01A2060F6
:1099E0003046FFF74FFC002502E0002020600125F3
:1099F000FFF7ECFB284670BD380000204C0000202B
:109A00002DE9FF4F85B0804689461746DDE912AB48
:109A1000B800FEF7DFFF064676B15420FEF7DAFF06
:109A200004462CB154212046FAF7EFFB266304E0EC
:109A30003046FFF7DBFB00E000247CB10020CDE9DD
:109A400000ABCDE902403A4649464046089BFEF746
:109A500097FE2046FEF728FD012501E04FF0FF3577
:109A6000284609B0BDE8F08F2DE9F041002757489E
:109A7000006800287ED156480068451C544805609F
:109A80008DB95448D0F800805348006851490860A7
:109A90005148C0F8008051480068401C4F49086098
:109AA000FEF736FF00BF4E480068854276D300BF00
:109AB00048480068006808B9012000E0002020B193
:109AC0004FF0FF304649086067E042480068C068D0
:109AD000C4686668B54202D2414806605DE06069CC
