:020000040800F2
:100000006007002031020008DB1F0008251D0008E2
:10001000D71F0008EF1B0008912100080000000016
:10002000000000000000000000000000B7200008F1
:10003000F31B000800000000DD1F0008B9200008C5
:100040004B0200084B0200084B0200084B0200085C
:100050004B0200084B0200084B0200084B0200084C
:100060004B0200084B0200084B0200084B0200083C
:100070004B0200084B0200084B0200084B0200082C
:100080004B0200084B0200084B0200084B0200081C
:100090004B0200084B0200084B0200084B0200080C
:1000A0004B0200084B0200084B0200084B020008FC
:1000B0004B0200084B0200084B0200084B020008EC
:1000C0004B0200084B0200084B0200084B020008DC
:1000D0004B0200084B0200084B0200084B020008CC
:1000E0004B0200084B0200084B0200080000000011
:1000F0000000000000000000000000000000000000
:100100004B02000800F002F800F082F80AA090E824
:10011000000C82448344AAF10107DA4501D100F0C2
:1001200077F8AFF2090EBAE80F0013F0010F18BF0D
:10013000FB1A43F001031847103100002031000082
:100140000023002400250026103A28BF78C1FBD8E0
:10015000520728BF30C148BF0B6070476E2900F0BE
:100160006981702900F0B382662902F0EB87652966
:1001700002F0E887672902F0E587612902F0E48749
:1001800003681B0A28BF41F08001692900F016812D
:10019000642900F01381752900F010816F2900F0A7
:1001A0004082782900F07F82E92900F0DB81E42990
:1001B00000F0D881F52900F0D581EF2900F03D82CB
:1001C000F82900F07E820368DB0928BF41F0800136
:1001D000632900F0A387732900F0A887E32900F0C2
:1001E000B387F32900F0B887002070471FB501F0EE
:1001F0002BF804000020002102F08EFF401C6060FC
:100200000020002102F072FFE0601FBD10B510BD9C
:1002100000F0EDFF1146FFF7E9FF02F02BFA01F0C5
:10022000C9F803B4FFF7F2FF03BC01F011F90000B5
:100230000948804709480047FEE7FEE7FEE7FEE77A
:10024000FEE7FEE7FEE7FEE7FEE7FEE704480549B6
:10025000054A064B70470000BD2000080501000854
:100260006001002060070020600300206003002080
:100270007CB51D4616460C00009001D02044401E5F
:10028000074B7B442A4669460190304600F0EBF864
:1002900005461CB10020694600F0F8F828467CBDF0
:1002A0001102000010B5431C02E010F8011B71B1EF
:1002B0008107FAD14FF0013202C88C1A8C4314EA3C
:1002C000C211F9D0C01A0A0603D0C01E10BDC01A50
:1002D00010BD0A0401D0801E10BD0902FCD0401ED2
:1002E00010BD02F0FF0343EA032242EA024200F09B
:1002F000BFBA70477047704770B50446856900689B
:10030000C10601D5302600E02026C00707D070BD09
:10031000D4E9012130469047206A401C20626D1EBE
:10032000F6D570BD70B5044685690078C00707D161
:1003300070BDD4E9012120209047206A401C206232
:100340006D1EF6D570BD09684A0501D540B27047EB
:10035000C905FCD500B2704709684A0501D5C0B28D
:100360007047C905FCD580B2704770B50C4605468C
:10037000012A05D02878800600D5EA69002302E02A
:10038000012305E05B1C934202D2E05C0028F9D116
:10039000A869E618C01AA861286A18442862284685
:1003A000FFF7AAFF04E0D5E9012114F8010B9047FB
:1003B000B442F8D32846FFF7B5FF70BD2DE9F041F0
:1003C0000646002410687529314616A510D0FFF79F
:1003D000BAFF002802DA404213A507E031688A0715
:1003E00001D512A502E0490704D511A5012401E0B9
:1003F000FFF7B2FF00210A2206F1240709E0B0FB53
:10040000F2FCB0FBF2F302FB1C00303078541846CB
:10041000491C0028F3D123462A463046BDE8F04166
:1004200000F08BBA000000002D0000002B0000003F
:100430002000000011680268006A530501D50870A9
:100440000AE0D30501D5088006E0130603D5C217DC
:10045000C1E9000200E008600120704701694A1C00
:1004600002610878704700B58FB0CDE901310021F5
:10047000059105497944CDE903101146684600F01D
:1004800031F90FB000BD0000E5FFFFFF0A6802F878
:10049000010B0A607047D1E900239A4202D2531C33
:1004A0000B601070704700002DE9FF5F15468A460B
:1004B0000446DFF8AC80F8440027D8E900103E4637
:1004C000CDE9001010E03AF816106A4602A800F0D4
:1004D00047FE411C07D02178890603D5E269391807
:1004E00091420DD80744761C2078800602D5E06939
:1004F000B84205DDAE42E6DB3AF816000028E2D14C
:10050000A069C01BA0612046FFF7F6FED8E90010E5
:10051000CDE90010002017E03AF818106A4602A84A
:1005200000F01EFEB0F1FF3F81460BD000250DF11B
:10053000080B05E0D4E901211BF8050090476D1C6C
:100540004D45F7D308F10100B0428046E4DB206A54
:10055000384420622046FFF7E5FEBDE8FF9F00001B
:10056000922C00002DE9F0418046D21D22F00702B6
:100570000025D2E90002F52915A614D0011E72F15A
:10058000000106DA0023D0EB030063EB020211A6A0
:1005900008E0D8F800108B0701D50FA602E0490744
:1005A00001D50EA601251146002408F1240704E018
:1005B00000F07EF930323A55641C50EA0102F7D15E
:1005C0002B46324621464046BDE8F04100F0B5B921
:1005D000000000002D0000002B00000020000000A3
:1005E00030B4002100F1240408E002F00705D2082D
:1005F000303542EA4372DB086554491C52EA030570
:10060000F3D10468002310A2250707D5A40600D45F
:1006100021B1C46901230DA2641EC46130BC00F085
:100620008CB910B5044621461068FFF795FE0246C6
:100630002046BDE810400023D2E7D21D22F007017A
:10064000D1E90023CCE700000000000030000000EA
:10065000F0B40D460188090502D5214C7C4402E026
:100660001F4C7C440E34002100F1240608E002F007
:100670000F071209E75D42EA03721B097754491C10
:1006800052EA0307F3D102780023120704D5702D34
:1006900006D009B1022311342246F0BC00F04DB956
:1006A00001231034F8E770B504460D462146106862
:1006B000FFF752FE024629462046BDE8704000235F
:1006C000C6E7D21D22F00703D3E90023C0E7036881
:1006D000126843F0200303600823C3610023B7E7D7
:1006E000F42A00002DE9F05F894604464FF0000A25
:1006F000DFF874B1FB44C0F820A02046E1688847C9
:10070000002874D0252806D0D4E901219047206A1A
:10071000401C2062F1E700265F462046E1688847DA
:100720002028054607DB312D05D2781910F8200C5A
:1007300008B10643F1E7B00701D526F00406C4F876
:100740001CA00027C4F818A02A2D09D0284601F0C3
:10075000B7FD38B304EB8708303DC8F8185019E0EE
:1007600059F8041B204604EB87029161E168884731
:10077000012F054618D1E069002820DA26F020066E
:100780001DE0D8F8180000EB800005EB4000303881
:10079000C8F818002046E1688847054601F090FD3A
:1007A0000028EED1012F0AD02E2D08D12046E16875
:1007B00088477F1C0546022F46F02006C4DBA0694F
:1007C000002803DA404246F00106A061F00701D09C
:1007D00026F010066C2D0BD0682D09D04C2D39D089
:1007E0006A2D35D0742D35D07A2D33D016E038E00F
:1007F000E1682F4620468847B842054609D16C2F4C
:1008000026D04FF48060E1680643204688470546BD
:1008100004E06C2F1AD04FF4807006430DB3A5F19D
:100820004100192802D8203546F400664A46294678
:10083000204626604E46FFF791FC80B101280BD080
:10084000F61D26F0070000F1080956E74020E4E70E
:100850008020D8E70020D6E706F104094DE72846B6
:1008600052E7206ABDE8F09F842A00004FF00002A2
:100870000429C0F0128010F0030C00F09384CCF136
:10088000040CBCF1020F18BF00F8012BA8BF20F820
:10089000022BA1EB0C0100F085BC5FEAC17C24BFF8
:1008A00000F8012B00F8012B48BF00F8012B70471E
:1008B00030B5B0F10A024FEA900E71F100034EEA32
:1008C000817EB0EB0E0061EB91014FEA101E4EEA03
:1008D000017E10EB0E0041EB11114FEA102E4EEA93
:1008E000016E10EB0E0041EB11214FEA104E4EEA63
:1008F000014E10EB0E0041EB1141401841F1000197
:100900004FEAD00040EA41704FEAD10110EB800578
:100910004FEA810444EA907444EB01046D1944EBFE
:100920000404521BA3414FF0000348BF0A3200D514
:1009300030BD401C41F1000130BD2DE9F0470D46AE
:1009400099469246044600F124080168880604D5B9
:10095000E06921F01001216000E00120A84201DDE2
:10096000471B00E00027A1697A1902EB0900081A69
:10097000A0612078C00602D42046FFF7BDFC002607
:1009800008E0D4E901211AF806009047206A401CCB
:10099000761C20624E45F4DB2078C0060AD520463E
:1009A000FFF7AAFC06E0D4E9012130209047206A35
:1009B000401C2062381EA7F10107F4DC07E0D4E9EF
:1009C000012118F805009047206A401C2062281E6B
:1009D000A5F10105F3DC2046FFF7A4FC2078000612
:1009E00002D50220BDE8F0870120FBE770472DE922
:1009F000FF4F0C461E464FF0FF378BB0D2E9000187
:100A0000DDF860800A908A46C1F30A5505B93D4673
:100A1000002108464FF00000BAF1000F00F440003A
:100A200005DA00EB80004FF4400101EA50004FEA84
:100A30009059B9F1010F00DDB9460A9850EA4A0011
:100A40000ED044F61050A5F2FF3545432F14B8F1EF
:100A5000000F1ED07542291E1EDDC9F100021CE0E8
:100A6000B8F1010F4FF0000001D0302103E0F24354
:100A700005E02154401CB042FBDB3046002200213F
:100A800021540B99C1F80880C1E900200FB0BDE8DE
:100A9000F08FBD1B6D1CDEE74A4600DA694206A8EE
:100AA00000F016FC06AB93E8070003AB83E80700F1
:100AB00050460A9900F0D3FC8DE80700A0F50050DD
:100AC0001F3800900398002D0ADD42F21F014A46AC
:100AD0000844002303A90390684600F03CFF09E0A6
:100AE000A0F500504A461F38002303A9039068462A
:100AF00000F046FF8DE807000004000C03D04FF023
:100B0000FF30410800E01046B8F1000F03D000228A
:100B1000009215461EE0751E05D4FFF7C9FE30325F
:100B200062556D1EF9D5B3460122084302D000225A
:100B30007F1C04E02078302801D100227F1E002A8B
:100B4000099784D01DE0112D07DAFFF7B1FE30328E
:100B500062556D1C50EA0102F5D1084302D000989D
:100B6000C8B10EE00021681E05E0235C625C63549E
:100B70002254401E491C8142F7DBAB46A81B401E95
:100B80000990002004F80B000B98099AC0F808801F
:100B9000C0E9002B7AE711264FF0000857E72DE94E
:100BA000F04F88460446D21D22F0070191B0D1E9EA
:100BB0000001CDE90A0101F06FFB02460B98C00F5E
:100BC00001D02D2007E02068810701D52B2002E00D
:100BD000202101EAC000032A099001D0072A05DB81
:100BE00003464146204600F033FB0BE120788006A7
:100BF00001D5E06900E00620B8F1650F814606D016
:100C0000B8F1660F18D0B8F1670F70D131E000204D
:100C1000B9F1110F009001DB112301E009F101038B
:100C20000AAA01A90CA8FFF7E2FEDDE90C70002674
:100C300009F10105834647E001204B4600904FF043
:100C400000470AAA01A90CA8FFF7D1FEDDE90DB003
:100C50000C995D46002610B909F101000D18B9EB99
:100C6000050003D4C0F1FF3609F10105A5EB090029
:100C70002BE0B9F1010F01DA4FF001090020B9F1C1
:100C8000110F0090484601DD112300E003460AAA37
:100C900001A90CA8FFF7ABFEDDE90C704D4600265C
:100CA0008346207800070AD4AB4500DA5D4601A8E8
:100CB000012D04DD411911F8011C302907D04F45E1
:100CC00002DA17F1040F04DA012082460FE06D1EEC
:100CD000EEE7002F02DCED1B3E4403E0781CA84247
:100CE00000DD7D1CB81B00F1010A4FF000472078A1
:100CF000000703D4AA4501DB4FF0FF3A0021B7F10A
:100D0000004F0DF143088DF8431024D002202B230F
:100D1000002F01DA7F422D230A21021EA0F10100DB
:100D200000DC5FB197FBF1FC97FBF1F201FB1C7C4F
:100D300017460CF1300C08F801CDEEE7A8F10100E0
:100D400003702188090501D5452100E06521A0F146
:100D5000010800F8011C09980FA9A1EB0807FF1D65
:100D600000B10120411901EBEA70A1693844081A69
:100D7000401EA0612078C00602D42046FFF7BCFACE
:100D8000099828B1D4E901219047206A401C2062CB
:100D90002078C00622D52046FFF7AEFA1EE0002ECE
:100DA00004DBB34502DD01A8805D00E03020D4E91A
:100DB00001219047206A401C2062761CAAF10100A4
:100DC0005FEA000A0AD100F03FFAC0680168405C9F
:100DD000D4E901219047206A401C2062281EA5F119
:100DE0000105DCDC07E0D4E9012118F8010B90478C
:100DF000206A401C2062381EA7F10107F3DC204660
:100E0000FFF790FA032011B041E600002DE9F04F02
:100E100004460D46D21D22F0070089B0D0E90097A4
:100E20004846394601F038FA0246F80F01D02D2322
:100E300007E02068810701D52B2302E0202101EA89
:100E4000C0038DF820300BB1012000E00020032A00
:100E5000824601D0072A04DB2946204600F0F8F933
:100E60003FE12078800601D40D2500E0E569C7F355
:100E70000A560D2D49DA00214FEA175B08464FF05C
:100E80000000002F00F4400007DA00EB80004FF470
:100E9000400100EBD07001EA60008115012901DDFD
:100EA0004FF0FF3100224FEA850CBCF1180F06D33A
:100EB0001346ACF118004FF08052C24003E04FF4EB
:100EC000801323FA0CF30CF10C0CBCF1200F04D3AB
:100ED000ACF1200C09FA0CF001E007FA0CF0002943
:100EE0004FF0004801DD18B90FE00ED140450CD39A
:100EF00019EB02095F4121B9404502D19F4329EA1C
:100F00000209BBEB175F00D0761C2088000502D5D4
:100F10007B48784402E07A487844193808AA30239C
:100F200002F80A30037C0AF10101002E0AF1020ADC
:100F300053546A4602DC4FF0300101E04FF03101BA
:100F40004FF001088DF8001002D0A6F2FF3603E042
:100F500059EA470100D06B4E002D02DC21780907C9
:100F600004D54FF002082E218DF80110C44600214F
:100F70000BE0C7F303433F01C35C491C6D1E02F83D
:100F80000830052908F1010801DA002DF1DC002103
:100F90000CE000EB1973491C1B786D1E082902F840
:100FA00008304FEA091908F1010801DA002DF0DCD8
:100FB00021688B0602D516E0A8F10108E04505DDA1
:100FC00002EB080313F8013C302BF5D0B8F1000F09
:100FD00009DD02EB080313F8013C2E2B03D10907AE
:100FE00001D4A8F10108002D05DD3E2102F808100A
:100FF0006D1E08F10108407C002E02F8080008F17F
:10100000010804DA2D20764202F8080002E02B20C5
:1010100002F808000A214FF47A70864208F10108AC
:101020000BDB96FBF0F3303302F8083096FBF0F35D
:1010300008F1010800FB136601E0642E0CDB64205C
:1010400096FBF0F3303302F8083096FBF0F308F12A
:10105000010800FB136601E00A2E06DB96FBF1F0A7
:10106000303002F8080008F1010896FBF1F001FBAE
:101070001060303002F80800A16908F1010808EB9F
:10108000050202EB0A00081AA0612078C00602D40B
:101090002046FFF731F9216A08AE01EB0A00206211
:1010A00004E0D4E9012116F8010B9047BAF1010AD6
:1010B000F7D22078C00602D52046FFF71DF96E460C
:1010C00009E016F8010B3E280FD0D4E90121904722
:1010D000206A401C2062B8F10108F2D22046FFF7D6
:1010E00021F909B00320BDE8F08F206A284420626E
:1010F00003E0D4E90121302090476D1EEBD3F8E7DF
:101100008A22000002FCFFFF10B5436913B1AFF360
:10111000008001E0FFF729F9012010BD127800F1ED
:1011200024010A7000224A700122EDE711684FF095
:10113000FF32E9E710B5436913B1AFF3008001E076
:10114000FFF7B2F9012010BD128800F1240182845A
:101150000022C2840122EDE711684FF0FF32E9E777
:1011600070B516460C46054600F066F8036893F81D
:101170000101012806D0FF2C0FD8185D68B10120AD
:101180002C7070BDD3F807013246214603F20713D5
:1011900003442846BDE8704018474FF0FF3070BD4B
:1011A0004FF0000200B5134694469646203922BF00
:1011B000A0E80C50A0E80C50B1F12001BFF4F7AF4B
:1011C000090728BFA0E80C5048BF0CC05DF804EB2D
:1011D000890028BF40F8042B08BF704748BF20F89B
:1011E000022B11F0804F18BF00F8012B7047754695
:1011F00000F0EAF8AE4605006946534620F00700C5
:10120000854618B020B5FFF721F8BDE820404FF023
:1012100000064FF000074FF000084FF0000B21F0E0
:101220000701AC46ACE8C009ACE8C009ACE8C009AD
:10123000ACE8C0098D46704710B500F005F8001DF8
:1012400010BD00BFD51E00000048704720010020DF
:101250002DE9F0411F46044603260168072A01F4E0
:10126000006004DB08B116A505E016A503E008B18F
:1012700015A500E015A521F010002060A069C01E92
:10128000A0610FB1401EA0612046FFF735F84FB1B5
:10129000D4E9012138469047206A401C2062C01CD6
:1012A000206206E0206AFAE7D4E9012115F8010B73
:1012B0009047761EF8D22046FFF734F8BDE8F0815B
:1012C0004E414E006E616E00494E4600696E6600EA
:1012D0002DE9F047814616468AB0354878440DC856
:1012E0008DE80D0032487844801C03AC0DC884E8BA
:1012F0000D0041F69B300844372190FBF1F290FB42
:10130000F1F5A5F1800501FB12041B3C02D56442F6
:10131000012000E00020DFF898A080460027FA4472
:10132000AAF1BE0A0EE0E0070AD03246684607EB93
:10133000470101230AEB810100F022FB8DE8070041
:1013400064107F1C002CEED1194F7F44AE3F19E092
:10135000E80715D007EB04100DF1180A90E80E000D
:101360008AE80E00C068F04201D198190890324610
:10137000012306A903A800F003FB03AB83E80700E1
:101380006D10641C002DE3D14FF001033246694615
:10139000B8F1000F03A802D000F0DDFA01E000F080
:1013A000EFFAC9E90001C9F808200AB0BDE8F087E2
:1013B000501F000010B50446AFF300802046BDE882
:1013C0001040FEF72EBF00000048704700010020CB
:1013D0004FF0013C50F8042B51F8043B9A4221D1C4
:1013E000A2EB0C03934313EACC1317D150F8042B50
:1013F00051F8043B9A4215D1A2EB0C03934313EA34
:10140000CC130BD150F8042B51F8043B9A4209D16C
:10141000A2EB0C03934313EACC13DBD04FF0000094
:10142000704700BFD01A01BAB1FA81F101F018017A
:1014300022FA01F0CB40C1F12001DBB2C0B2C01AE8
:101440002CFA01F3D11A914311EAC311E6D1704786
:1014500001491820ABBEFEE72600020070475FEA94
:10146000400C08BF91F0000F4FEA8C234FEAC122D5
:1014700043EA51514FEA1C5018BF00F5F0404FEAC3
:10148000300018BF41F000415FEA6C5C00F0298039
:10149000BCF1FF3F08BF40F080407047130C06BF0F
:1014A00012044FF0100C4FF0000C130E04BF120288
:1014B0000CF1080C130F04BF12010CF1040C930F74
:1014C00004BF92000CF1020CD30F04BF52000CF1C8
:1014D000010C11464FF00002A0F11F00A0EB0C0020
:1014E000704711F0004F08BF704731F000413FF4E2
:1014F000D5AF0B0C06BF09044FF0100C4FF0000CD9
:101500000B0E04BF09020CF1080C0B0F04BF0901FC
:101510000CF1040C8B0F04BF89000CF1020CCB0FF3
:1015200004BF49000CF1010CCCF12003A0EB0C002E
:1015300022FA03F302FA0CF241EA030100F101007E
:10154000704720F07F4C80EA030023F07F47ACEB2C
:10155000070303F57C5300F0004003F1FF032DE97E
:1015600080494FEA154B09B44FEA144325EA0B4E64
:1015700024EA03480FF2042606EB132749083E78B5
:101580005FEA320203FB0667C7F5000707FB06F6B2
:101590004FEA54374FEAD64606F1020607FB066CBF
:1015A000CCF1005C4FEA1C472CEA074C07FB06F421
:1015B0000CFB06F504EB15464FEA961634BF0020E7
:1015C0004FF000404FEAD13706FB07FC4FEA1C4CB6
:1015D0000CFB0BF7D21B03FB0CF761EB07010CFBB9
:1015E0000EF7B0EB074072EB17420CFB08F734BF65
:1015F000A2EB0742B2EB074261EB17414FEA0C4402
:101600004FEA910706FB07FC4FEA1C4C0CFB0BF75B
:10161000B0EBC74072EB573203FB0CF734BFA2EBC1
:10162000C742B2EBC74261EB57310CFB0EF7B0EB90
:10163000C70072EB57720CFB08F734BFA2EBC7026E
:10164000B2EBC70261EB5771039F4FEA816141EA38
:10165000921104EBCC044FEAD1374FEA826206FBC9
:1016600007FC42EA90124FEA80604FEA1C4C0CFBE8
:101670000BF7D21B03FB0CF761EB07010CFB0EF71A
:10168000B0EB074072EB17420CFB08F734BFA2EB3C
:101690000742B2EB074261EB17414FEA8C554FEA24
:1016A000910704EB9C2406FB07FC4FEA1C4C0CFB47
:1016B0000BF7B0EBC74072EB573203FB0CF734BFAC
:1016C000A2EBC742B2EBC74261EB57310CFB0EF7FE
:1016D000B0EBC70072EB57720CFB08F734BFA2EBFC
:1016E000C702B2EBC70261EB577115EB4C254FEA0D
:1016F000816141EA92114FEA82624FEAD13742EAB0
:10170000901206FB07FC44F100044FEA80604FEAA8
:101710001C4C0CFB0BF7D21B03FB0CF761EB070116
:101720000CFB0EF7B0EB074072EB17420CFB08F70F
:1017300034BFA2EB0742B2EB074261EB174115EB56
:101740001C154FEA813141EA92414FEA823242EA66
:1017500090424FEA80304FEA0C7644F1000448EAA8
:1017600003434EEA0B484FF0000EB2EB080C71EB4E
:10177000030724BF624639464EEB0E0E4FF0000BB6
:101780000018524149414BEB0B0BB2EB080C71EBCB
:1017900003077BF1000B24BF624639464EEB0E0E69
:1017A0004FF0000B0018524149414BEB0B0BB2EBD1
:1017B000080C71EB03077BF1000B24BF624639462E
:1017C0004EEB0E0E51EA020718BF46F0010616EB6B
:1017D0000E7655F1000254F1000103D5BDE88901F0
:1017E000BDE80088BDE88901BDE80048B61952414E
:1017F00041EB0101A3F10103704780807F7E7D7C76
:101800007B7A7978777676757473727171706F6E92
:101810006E6D6C6C6B6A6A6968686766666564643D
:10182000636362616160605F5F5E5E5D5D5C5C5BC7
:101830005B5A5A5959585857575656555555545436
:10184000535352525251515050504F4F4F4E4E4D94
:101850004D4D4C4C4C4B4B4B4A4A4A4949494848E0
:101860004847474747464646454545444444444320
:1018700043434342424242414141002B9C4630D4C3
:1018800077002BD01CB54FEA370703B44FF0100098
:101890004FF01001BAF1000F06D0BCF1000FDCBF11
:1018A00040F0080040F008014FF000000FBCBDE818
:1018B00010400BF1010BBBF1010F08BF5FEA1707E6
:1018C00022BF12F1010211F101014FF0004143F179
:1018D000000300F0004043EA00007047F9D35708C6
:1018E000D0E746EA064613F1400F4FEA16461FDDE1
:1018F00013F1200FDFBF16430A46002120335B425D
:10190000BED0C3F1200746EA064602FA07F74FEABF
:10191000164646EA0706C3F1200722FA03F201FA47
:1019200007F721FA03F14FF0000342EA0702A7E7A5
:1019300046EA020646EA06464FEA164646EA010627
:10194000BCBF46EA0646360C4FF000034FF00002DB
:101950004FF0000194E72DE9804C9A46934670B40D
:1019600091E8380007C831EA400C48BF34EA430C1C
:1019700003D5FFF7E6FDFFF780FFF0BCBDE8008C64
:101980002DE9804C9A46934670B491E8380007C818
:1019900010F0804F08BF13F0804F03D100F005F81E
:1019A000FFF76BFFF0BCBDE8008C20F07F4780EABA
:1019B000030023F07F4C07EB0C03A3F57C5300F0EE
:1019C0000040A3F1FE0392F0000F00F0B38095F009
:1019D000000F00F077802DE901494FEA11404FEAEE
:1019E000144621EA004800FB06FC24EA064708FBEF
:1019F00006F607FB08F800FB07F718EB06484CEB68
:101A0000164C4FEA124B18EB07484FEA15464CEBC1
:101A1000174022EA0B4E0BFB06FC25EA06470EFB9D
:101A200006F607FB0EFE0BFB07F71EEB064E4CEB14
:101A3000164C4FF000061EEB074E4CEB174B18EB05
:101A40000B0840F1000018EB0E0B58EB000840F1BA
:101A500000008F1A4FF000013CBFC943661B14BF42
:101A6000B5EB040C00213CBFC943F61B4FEA1744F9
:101A70004EEA8E0E27EA04454FEA1C4704FB076234
:101A80002CEA074C05FB07F70CFB05F604FB0CFCE6
:101A900016EB074642EB174216EB0C4642EB1C4294
:101AA0001BEB060658EB0202414146EA9E0601D5B1
:101AB000BDE80189B619524141EB0101A3F10103CF
:101AC000BDE801894FEA14454FEA114724EA05466B
:101AD00021EA074C05FB07F406FB07F70CFB06F1B0
:101AE00005FB0CFC11EB074144EB17444FEA12478E
:101AF00011EB0C4144EB1C4422EA074C05FB07F2B6
:101B000006FB07F70CFB06F605FB0CFC16EB07467D
:101B100042EB174216EB0C4642EB1C456A1854F197
:101B2000000148BF7047B619524141EB0101A3F1D2
:101B30000103704795F0000F37D04FEA11424FEA8A
:101B4000144721EA024624EA074C02FB07F106FB90
:101B500007F70CFB06F402FB0CFC14EB074441EB0B
:101B600017414FEA154714EB0C4441EB1C4125EAA1
:101B7000074C02FB07F506FB07F70CFB06F602FB1A
:101B80000CFC16EB074645EB174516EB0C4645EBF0
:101B90001C42121951F1000148BF7047B619524159
:101BA00041EB0101A3F1010370474FEA14454FEAED
:101BB000114724EA054621EA074C05FB07F106FB1D
:101BC00007F70CFB06F24FF0000605FB0CFC12EBCE
:101BD000074241EB174112EB0C4251EB1C4148BF4D
:101BE0007047921841EB0101A3F10103704700BF58
:101BF000FEE7704710B5042001F06CF910BD00B588
:101C0000034603E04FF47A7000F006F8181EA3F1C3
:101C100001018BB2F6D100BD6C2141434FF0E022AF
:101C20005161002191611146096941F00101116181
:101C300000BF4FF0E021096901F480310029F8D09C
:101C40004FF0E021096921F001014FF0E02211611C
:101C500070472DE9F04104460E4600F027FC40F2A3
:101C6000073000F087FBA719254608E0284600F05A
:101C7000A7FB40F2073000F07DFB05F58065BD4213
:101C8000F4D300F087FBBDE8F0812DE9F041054673
:101C90000E46174600F00AFC40F2073000F06AFBDF
:101CA000F81C4FEA900800240AE056F8241005EBCF
:101CB000840000F01DFC40F2073000F05BFB641C68
:101CC0004445F2D300F066FBBDE8F08170B50446F0
:101CD000114920680840B0F1005F1CD172B60020A5
:101CE00009E04FF0FF320D4941F820200C4941F83E
:101CF0002020411CC8B20828F3DB00204FF0E0216F
:101D000008614861886100F047FF6568206880F3DA
:101D1000088800BFA84770BD0000FE2F80E100E0EA
:101D200080E200E000BFFEE710B540F2036000F083
:101D3000E1FF402303221421084800F03DFC8023EA
:101D400003221421054800F037FC4021034800F02D
:101D500031FC8021014800F02DFC10BD000C014039
:101D600070B505460026072418E04021264800F0FB
:101D70001FFC0220FFF750FF4021234800F01AFC0F
:101D80008021214800F06EFC18B10120A0403043B2
:101D9000C6B20220FFF740FF601E44B2002CE4DA16
:101DA0004021194800F004FC0220FFF735FFB5B1CF
:101DB0008021154800F0FCFB4021134800F0FAFB9D
:101DC0000220FFF729FF40210F4800F0F1FB80219E
:101DD0000D4800F0EFFB0220FFF71EFF11E080210D
:101DE000094800F0E7FB4021074800F0E3FB022030
:101DF000FFF712FF4021044800F0DAFB0220FFF752
:101E00000BFF304670BD0000000C014070B5054668
:101E100007241CE04021134800F0CAFB0120A04029
:101E2000284020B180210F4800F0C4FB03E080214E
:101E30000C4800F0BDFB0220FFF7EEFE40210948F0
:101E400000F0B8FB0220FFF7E7FE601E44B2002C52
:101E5000E0DA4021034800F0ABFB8021014800F0AC
:101E6000A9FB70BD000C014010B540210A4800F0EC
:101E7000A1FB8021084800F09DFB0220FFF7CCFE6B
:101E80008021054800F094FB0220FFF7C5FE4021A9
:101E9000014800F08DFB10BD000C014010B5402141
:101EA000074800F087FB8021054800F081FB0220F5
:101EB000FFF7B2FE8021024800F07CFB10BD00005D
:101EC000000C014010B5044600BF601E04B20220A1
:101ED000FFF7A2FE8021104800F0C4FB08B1002CDF
:101EE000F3DA002C01DA012010BD40210A4800F08D
:101EF00061FB0220FFF790FE8021074800F0B2FB53
:101F000008B10220F0E74021034800F051FB022015
:101F1000FFF782FE0020E7E7000C01402DE9F041C9
:101F200007460D461646FFF79FFFA020FFF76EFFFE
:101F30006420FFF7C7FF10B10120BDE8F0813846EB
:101F4000FFF764FF6420FFF7BDFF08B10220F4E74C
:101F5000FFF78AFFA120FFF759FF6420FFF7B2FFC8
:101F600008B10320E9E7002405E00120FFF7F8FEAF
:101F70002855601CC4B2701EA042F6DC0020FFF79A
:101F8000EFFE711E6854FFF789FF0020D5E770B59A
:101F900005460C46FFF768FFA020FFF737FF6420D7
:101FA000FFF790FF08B1012070BD2846FFF72EFF14
:101FB0006420FFF787FF08B10220F5E72046FFF70E
:101FC00025FF6420FFF77EFF08B10320ECE7FFF751
:101FD00065FF0020E8E700BFFEE77047704700009C
:101FE00000B587B040F20C6000F084FE40F2026061
:101FF00000F080FEA02303221821114800F0DCFA33
:102000004023032204210E4800F0D6FA0D4800F0C8
:10201000ADFE4FF4827000900020019002904FF4CA
:1020200000700390002004900590102006906946EF
:10203000044800F0CFFE034800F08CFE07B000BD5E
:10204000000801400030014070B505460E460024EE
:1020500005E0FF2000F006F82855601C84B2B44269
:10206000F7DB70BD10B5044600BF02210A4800F03E
:10207000A9FE0128F9D12146074800F074FE00BFEF
:102080000121054800F09EFE0128F9D1024800F028
:1020900066FEC0B210BD00000030014070B50546BC
:1020A0000E46002404E0285DFFF7DCFF601C84B2CC
:1020B000B442F8DB70BD70477047000008B5304887
:1020C000006840F001002E49086000BF2C480068FD
:1020D00000F002000028F9D000BF2948406840F015
:1020E0008000274948600020009002E00098401CD2
:1020F000009000985028F9D32148406840F09000A3
:102100001F4948600020009002E00098401C0090A9
:1021100000985028F9D300BF1948406820F0030008
:102120001749486008460068164908401449086085
:10213000084640681449084011494860084600684C
:10214000104908400E4908600846006820F48020C5
:102150000860084640680D4908400949486008463B
:10216000006808490840064908604FF41F0088606D
:1021700000F0ACFE00214FF0006000F06FFC08BDE5
:1021800000100240FFFFF6FE0C00FFE8FFFF00F723
:1021900000BFFEE710B5044640F20E6000F0AAFD55
:1021A00040F2026000F0A6FD4FF4007303221821F4
:1021B0000E4800F001FA0E4800F01CFF21460C48C2
:1021C00000F0CCFE00210A4800F070FF0021084812
:1021D00000F084FF0021064800F070FF0821044849
:1021E00000F074FF024800F04DFF10BD00080140F0
:1021F0000038014010B540F2026000F07BFD102372
:1022000003221946044800F0D7F91021024800F0D3
:10221000D1F9FFF7E5FE10BD00080140F8B506460C
:102220000C46154603208DF80000200C8DF80100A7
:10223000200A8DF80200E0B28DF8030000F014F8D7
:102240001021084800F0B4F904216846FFF726FF82
:10225000A9B23046FFF7F8FE1021024800F0AAF9B3
:10226000F8BD00000008014010B500BF102109486A
:1022700000F09EF90520FFF7F5FEFF20FFF7F2FEC4
:1022800004461021034800F095F904F001000028ED
:10229000ECD110BD00080140490050EAC12018BF30
:1022A00004204A0D18BF40F0010040F2FF72B2EB6B
:1022B000515F08BF40F00200012808BF05207047A9
:1022C00030380A2801D2012070470020704700B53D
:1022D0000346012200BF00F00BF802465B1E012AF4
:1022E00001D1002BF7D1012A00D10422104600BDF4
:1022F00000200A49C96801F0010109B101200CE080
:102300000649C96801F0100109B1032005E003493D
:10231000C96801F0040101B10220704700200240A9
:1023200000B50346012200BF00F00CF802465B1E18
:10233000012A01D1002BF7D1012A00D10422104635
:1023400000BD000000200A49C96C01F0010109B17B
:1023500001200CE00649C96C01F0100109B103200D
:1023600005E00349C96C01F0040101B10220704786
:1023700000200240064A02EB9011096800F01F039A
:1023800001229A401143024B03EB901211607047F7
:10239000002002400848006940F0800006490861BA
:1023A00006480088B0F5007F04D90846006D40F06B
:1023B000800008657047000000200240E0F7FF1F22
:1023C00030B5054636480088B0F5007F48D9354815
:1023D00085421ED24FF47020FFF779FF0446002C8F
:1023E0005BD13148006940F002002F49086108467E
:1023F0004561006940F0400008614FF47020FFF72C
:1024000066FF04462848006920F00200264908615A
:1024100043E04FF47020FFF783FF0446002C3CD1CB
:102420002148006D40F002001F49086508464565D7
:10243000C06900F0020008B1084645611A48006D05
:1024400040F04000184908654FF47020FFF768FF1E
:1024500004461548006D20F00200134908651CE091
:102460004FF47020FFF733FF0446B4B90E480069FB
:1024700040F002000C49086108464561006940F0DF
:10248000400008614FF47020FFF721FF0446064822
:10249000006920F0020004490861204630BD0000B8
:1024A000E0F7FF1FFFFF0708002002400C4800690B
:1024B00000F0800020B10B48094948600A48486094
:1024C0000A480088B0F5007F09D90548006D00F082
:1024D000800020B1034802494864034848647047BB
:1024E0000020024023016745AB89EFCDE0F7FF1FD5
:1024F00070B504460D4600262A480088B0F5007FD6
:1025000035D92948844219D24FF47020FFF7DFFEF5
:102510000646002E43D12548006940F001002349BA
:10252000086125604FF47020FFF7D1FE06461F4872
:10253000006920F001001D49086130E04FF470206F
:10254000FFF7EEFE064656BB1848006D40F001004E
:102550001649086525604FF47020FFF7E1FE064636
:102560001248006D20F001001049086517E04FF493
:102570007020FFF7ACFE06468EB90C48006940F0AB
:1025800001000A49086125604FF47020FFF79FFEA3
:1025900006460648006920F00100044908613046FB
:1025A00070BD0000E0F7FF1FFFFF0708002002409A
:1025B0004161704701617047F0B504461646002539
:1025C000002201F00F0501F0100707B1354300208C
:1025D0001EE0012787401F40C7B122684FEA800CE8
:1025E0000F2707FA0CF7BA43870005FA07F73A43B3
:1025F000282904D1012787401F40676105E0482949
:1026000003D1012787401F4027612260471CB8B2D1
:102610000828DED3082022E0012787401F40E7B1C9
:102620006268A0F108074FEA870C0F2707FA0CF73A
:10263000BA43A0F10807BF0005FA07F73A43282973
:1026400004D1012787401F40676105E0482903D175
:10265000012787401F4027616260471CB8B21028DD
:10266000DAD3F0BD02469068084008B101207047F7
:102670000020FCE7C2B0002041900024FFF7BAFA26
:102680004FF4E130FFF786FDFFF74EFBFFF7B2FD99
:1026900053A000F033FC5CA000F030FC63A000F01D
:1026A0002DFC012241A90020FFF738FC9DF8040110
:1026B0005A285FD1042240A90120FFF72FFC9DF882
:1026C00000019DF8011140EA01209DF8021140EA45
:1026D00001409DF8031140EA016421465CA000F02E
:1026E0000DFC24B1B4F5404F01D8601C18B963A0AB
:1026F00000F004FC44E06EA000F000FC21467548A8
:10270000FFF7A7FA74A000F0F9FB77A000F0F6FB42
:10271000704F4FF00008002520E0601BFF2802D911
:102720004FF4807000E0601B8146FF22511C684618
:10273000FDF7D7FD4A4641466846FFF76FFD4A461A
:1027400069463846FFF7A1FAC8444F44C5F309006B
:1027500010B96AA000F0D2FB05F58075A542DCD364
:10276000002041909DF80411FFF711FC64A000F0D7
:10277000C5FB04E09DF804116BA000F0BFFB00BF97
:1027800072A000F0BBFB534E7AA0316800F0B6FB9C
:1027900080A0716800F0B2FB864930680840B0F153
:1027A000005F0BD084A000F0A9FB06E08DA000F034
:1027B000A5FB4FF4FA60FFF722FAF7E796A000F0C6
:1027C0009DFB6420FFF71BFA4248FFF77FFA06E003
:1027D0009AA000F093FB4FF47A70FFF710FAF7E736
:1027E0000D0A3D3D3D3D3D3D3D3D3D3D3D3D3D3D7C
:1027F0003D3D3D3D3D3D3D3D3D3D3D3D3D3D3D3D09
:102800003D3D3D0D0A000000202020426F6F746C9A
:102810006F616465722056322E3220B9A4D2B5BCE5
:10282000B6CEC8B6A8B0E60D0A0000003D3D3D3D5D
:102830003D3D3D3D3D3D3D3D3D3D3D3D3D3D3D3DC8
:102840003D3D3D3D3D3D3D3D3D3D3D3D3D0D0A0058
:102850005B426F6F745D20D7BCB1B8204F544120EC
:10286000C9FDBCB6A3ACB9CCBCFEB4F3D0A13A2030
:10287000256420D7D6BDDA0D0A0000005B457272D0
:102880006F725D20B9CCBCFEB3A4B6C8B7C7B7A8F9
:1028900020283020BBF2B3ACB9FD2034384B42299C
:1028A000A3ACC8A1CFFBC9FDBCB6A3A10D0A000013
:1028B0005B426F6F745D20D5FDD4DABDE2B3FDCB12
:1028C000F8B6A8B2A2B2C1B3FD20466C6173682EFF
:1028D0002E2E00000040000820B2C1B3FDB3C9B9DC
:1028E000A6A3A10D0A0000005B426F6F745D20BFBC
:1028F000AACABCB0E1D4CB3A200000002E000000F0
:102900000D0A5B426F6F745D20B9CCBCFED0B4C8B9
:10291000EBCDEAB1CFA3ACB1EAD6BECEBBD2D1B932
:10292000E9C1E3A1A30D0A005B426F6F745D20B1A2
:10293000EAD6BECEBB20307825303258A3ACCEDEEE
:10294000D0E8B8FCD0C2A1A30D0A00000D0A5B5666
:1029500065726966795D20D5FDD4DABDF8D0D0D72F
:10296000EEBAF3B5C4CAFDBEDDC9F3BCC62E2E2E29
:102970000D0A000020202D204D53502028B6D1D51F
:10298000BBD6B8D5EB293A203078253038580D0A17
:102990000000000020202D2052657365742028B8A7
:1029A000B4CEBBCFF2C1BF293A2030782530385899
:1029B0000D0A00000000FE2F5B4572726F725D20F1
:1029C000466C61736820CDB7B2BFCAFDBEDDB7C724
:1029D000B7A8A3A1CCF8D7AAB1D8CBC0A3A10D0AA0
:1029E00000000000C7EBBCECB2E92041505020B918
:1029F000A4B3CCB5C420524F5F4241534520C9E82F
:102A0000D6C3CAC7B7F1CEAA2030783038303034B8
:102A10003030300D0A0000005B426F6F745D20D2D1
:102A2000FDC7E6B5E3BBF0A3A14A756D7020746FD6
:102A3000204150502E2E2E0D0A0000005B4372697B
:102A4000746963616C5D20CCF8D7AAD6B8C1EED6A4
:102A5000B4D0D0CAA7B0DCA3A10D0A00034A0A4033
:102A60000243034B1A60BFF34F8F704780FFFF1F75
:102A700008ED00E02DE9F04F8BB0074600200990EB
:102A80003EA090E8004CC068CDE905BECDF810A08E
:102A900007900FF2EC0ADAE9000ACDE9020A0FF218
:102AA000E00ADAE9000ACDE9000A38484068C0F3D4
:102AB00081000A900A9820B1012804D0022829D167
:102AC00003E0334928E0324926E03048406800F40A
:102AD0008038B8F5803F09D12D4C2C48406800F46F
:102AE0000039B9F5003F02D1641000E0294C2748B5
:102AF0004068C0F383422548406800F0006008B198
:102B000042F010020F2A01D2921C00E0521C04FB7A
:102B100002F101E01E4900BF00BF1C484068C0F33D
:102B2000031504A8465D21FA06F318484068C0F36F
:102B3000022502A8465D23FA06FC14484068C0F34B
:102B4000C2251DF8056023FA06F0089037B1012F61
:102B500006D0022F06D0032F0AD106E0099108E023
:102B6000099306E0CDF824C003E00898099000E03E
:102B700000BF00BF09980BB0BDE8F08F0000000057
:102B800000000000010203040607080900100240CB
:102B900000127A0000093D0000B51248006840F0BC
:102BA000010010490860002000F034F80D4840682A
:102BB00020F003000B494860084600680A490840B5
:102BC000084908600846006820F48020086008462C
:102BD000406806490840034948604FF41F00886078
:102BE00000BD000000100240FFFFF6FE0C0000E0F8
:102BF0000146074A02EB9110006801F01F03012211
:102C00009A40104008B1012070470020FCE7000006
:102C100000100240F0B50646002400270025182EBB
:102C200051D003DC6EB3102E5DD106E0B6F5006F17
:102C300014D0B6F5106F56D133E004E01120FFF741
:102C4000D7FF0546641C1DB94FF6FF708442F5D1CD
:102C50001120FFF7CDFF00B1012745E005E040F668
:102C60000100FFF7C5FF0546641C1DB96FF07C40ED
:102C70008442F4D140F60100FFF7BAFF00B101270A
:102C800032E004E00120FFF7B3FF0546641C15B9EC
:102C9000B4F5A06FF6D10120FFF7AAFF00B101271C
:102CA00022E005E040F60110FFF7A2FF0546641C94
:102CB00015B90F488442F5D140F60110FFF798FF8F
:102CC00000B1012710E004E01920FFF791FF05464D
:102CD000641C15B906488442F6D11920FFF788FF15
:102CE00000B1012700E000BF00BF3846F0BD000082
:102CF000FFFF0F00064A02EB9011096800F01F0366
:102D000001229A401143024B03EB9012116070476D
:102D100000100240064A02EB9011096800F01F0300
:102D200001229A409143024B03EB901211607047CD
:102D300000100240064A02EB9011096800F01F03E0
:102D400001229A401143024B03EB9012116070472D
:102D500000100240016841F04001016070470146E7
:102D6000C86880B27047C1607047000010B5044663
:102D70001348204470B1B0F5806F14D0B0F5784F8F
:102D80001AD14FF44370FFF7D5FF4FF44370FFF7AC
:102D9000C1FF12E040F20E40FFF7CCFF40F20E40C0
:102DA000FFF7B8FF09E040F20F40FFF7C3FF40F222
:102DB0000F40FFF7AFFF00E000BF00BF10BD0000F5
:102DC00000C8FFBF02469068084008B10120704764
:102DD0000020FCE702460020106800F441500B6818
:102DE00018434B6818438B681843CB6818430B692A
:102DF00018434B6918438B6918431060D36923F457
:102E00000063D36170470000002000212C4A126843
:102E100042F480322A4B1A6000BF401C284A1268D4
:102E200002F4003119B94FF6FF729042F5D1244AED
:102E3000126802F400320AB900BFFEE7204A526865
:102E40001F4B5A601A4652685A601A46526842F43A
:102E500080625A601A46526822F440325A601A461A
:102E6000526842F440325A601A465268154B1A4072
:102E7000134B5A601A465268134B1A43104B5A6050
:102E80001A46126842F080721A6000BF0C4A12683B
:102E900002F00072002AF9D0094A526822F00302B7
:102EA000074B5A601A46526842F002025A6000BF4D
:102EB000034A526802F00C02082AF9D17047000058
:102EC00000100240FFFFC3F70000280810B5FFF70D
:102ED0009BFF10BD042808D14FF0E021096941F0A3
:102EE00004014FF0E022116107E04FF0E021096991
:102EF00021F004014FF0E022116170470FB438B5A2
:102F000005A800904FF480711248009B049AFDF7C9
:102F1000AFF90020009000240DE000BF07210E480B
:102F200000F0B5F80128F9D10A48015D0A4800F01F
:102F30005DF8601C84B20748FDF7B4F9A042ECD8F4
:102F400000BF0621044800F0A2F80128F9D138BCDE
:102F50005DF814FB00000020003801402DE9F04727
:102F600004460D460027B846B94600261D49601A9A
:102F70008C421CD006DC1C48204470B1B0F5806F38
:102F80001FD10FE0B0F5806F16D0B0F56C4F18D19F
:102F90000320FFF76FFD074614E00220FFF76AFDEC
:102FA00007460FE00220FFF765FD07460AE0022012
:102FB000FFF760FD074605E00220FFF75BFD0746CF
:102FC00000E000BF00BF07EB5500B0FBF5F64FF681
:102FD000F07006EA000806F00F0948EA0900A06050
:102FE000BDE8F087004C004000BCFFBFC1F3080201
:102FF0004260704710B504462049601A8C4228D0C0
:1030000006DC1F48204490B1B0F5806F33D117E043
:10301000B0F5806F26D0B0F56C4F2CD140F20E3059
:10302000FFF788FE40F20E30FFF774FE24E040F216
:103030001140FFF77FFE40F21140FFF76BFE1BE0EF
:1030400040F21240FFF776FE40F21240FFF762FEB8
:1030500012E040F21340FFF76DFE40F21340FFF71D
:1030600059FE09E040F21440FFF764FE40F21440BC
:10307000FFF750FE00E000BF00BF10BD004C004055
:1030800000BCFFBFC16841F40051C160704710B57A
:10309000024602EB9110006801F01F040123A340D7
:1030A000184008B1012010BD0020FCE7C26822F4DE
:1030B000C062C260C2680A43C2607047026922F4FB
:1030C0004052026102690A43026170470A460021C8
:1030D000C16821F008011143C1607047C26822F441
:1030E0008052C260C2680A43C260704710B50029AE
:1030F0000AD00878002807D005487844FEF768F918
:10310000002801D0002010BD0248784410BD000006
:103110005E0100005601000010B500290AD00878B1
:10312000002807D005487844FEF752F9002801D05E
:10313000002010BD0248784410BD00004E01000080
:1031400046010000FDF72BBDFDF760BE000000004A
:1031500000000000303132333435363738394142DF
:1031600043444546403058003031323334353637E9
:103170003839616263646566403078000400000895
:103180000000000000000002000100001030313299
:103190003334353637383961626364656678700078
:1031A000303132333435363738394142434445467D
:1031B0005850000002400000000000A00000000085
:1031C00005400000000000C8000000000C400000A6
:1031D0000000409C00000000194000000020BCBE20
:1031E0000000000034400000BFC91B8E0000000436
:1031F000B5400000504BCFD06607E2CF0100000081
:103200006C4100003E8251AADFEEA73401000000AD
:10321000D9420000DCB5A0E23A301F97FFFFFFFF64
:10322000B4450000FD25A0C8E9A3C14FFFFFFFFF83
:10323000FF3F00000000008000000000FF3F000092
:10324000000000800000000084330008000000201F
:1032500060070000400100081C000000430000005F
:10326000F8FFFFFF0C0000000E0000000F00000040
:103270002E0000001001000043000000F8FFFFFFD7
:103280000040404040404040404041414141414079
:10329000404040404040404040404040404040402E
:1032A00040050202020202020202020202020202BD
:1032B00002202020202020202020200202020202C2
:1032C000020290909090909010101010101010101A
:1032D0001010101010101010101010100202020226
:1032E000020288888888888808080808080808086A
:1032F0000808080808080808080808080202020266
:10330000400000000000000000000000000000007D
:1033100000000000000000000000000000000000AD
:10332000000000000000000000000000000000009D
:10333000000000000000000000000000000000008D
:10334000000000000000000000000000000000007D
:10335000000000000000000000000000000000006D
:10336000000000000000000000000000000000005D
:10337000000000000000000000000000000000004D
:043380000000000049
:0400000508000105E9
:00000001FF
